{
    "contractName": "ChordusArena",
    "abi": [
        {
            "inputs": [
                {
                    "internalType": "string",
                    "name": "_name",
                    "type": "string"
                },
                {
                    "internalType": "string",
                    "name": "_symbol",
                    "type": "string"
                },
                {
                    "internalType": "string",
                    "name": "_initBaseURI",
                    "type": "string"
                },
                {
                    "internalType": "string",
                    "name": "_initNotRevealedUri",
                    "type": "string"
                }
            ],
            "stateMutability": "nonpayable",
            "type": "constructor"
        },
        {
            "anonymous": false,
            "inputs": [
                {
                    "indexed": true,
                    "internalType": "address",
                    "name": "owner",
                    "type": "address"
                },
                {
                    "indexed": true,
                    "internalType": "address",
                    "name": "approved",
                    "type": "address"
                },
                {
                    "indexed": true,
                    "internalType": "uint256",
                    "name": "tokenId",
                    "type": "uint256"
                }
            ],
            "name": "Approval",
            "type": "event"
        },
        {
            "anonymous": false,
            "inputs": [
                {
                    "indexed": true,
                    "internalType": "address",
                    "name": "owner",
                    "type": "address"
                },
                {
                    "indexed": true,
                    "internalType": "address",
                    "name": "operator",
                    "type": "address"
                },
                {
                    "indexed": false,
                    "internalType": "bool",
                    "name": "approved",
                    "type": "bool"
                }
            ],
            "name": "ApprovalForAll",
            "type": "event"
        },
        {
            "anonymous": false,
            "inputs": [
                {
                    "indexed": true,
                    "internalType": "address",
                    "name": "previousOwner",
                    "type": "address"
                },
                {
                    "indexed": true,
                    "internalType": "address",
                    "name": "newOwner",
                    "type": "address"
                }
            ],
            "name": "OwnershipTransferred",
            "type": "event"
        },
        {
            "anonymous": false,
            "inputs": [
                {
                    "indexed": true,
                    "internalType": "address",
                    "name": "from",
                    "type": "address"
                },
                {
                    "indexed": true,
                    "internalType": "address",
                    "name": "to",
                    "type": "address"
                },
                {
                    "indexed": true,
                    "internalType": "uint256",
                    "name": "tokenId",
                    "type": "uint256"
                }
            ],
            "name": "Transfer",
            "type": "event"
        },
        {
            "inputs": [
                {
                    "internalType": "address",
                    "name": "",
                    "type": "address"
                }
            ],
            "name": "addressMintedBalance",
            "outputs": [
                {
                    "internalType": "uint256",
                    "name": "",
                    "type": "uint256"
                }
            ],
            "stateMutability": "view",
            "type": "function"
        },
        {
            "inputs": [
                {
                    "internalType": "address",
                    "name": "to",
                    "type": "address"
                },
                {
                    "internalType": "uint256",
                    "name": "tokenId",
                    "type": "uint256"
                }
            ],
            "name": "approve",
            "outputs": [],
            "stateMutability": "nonpayable",
            "type": "function"
        },
        {
            "inputs": [
                {
                    "internalType": "address",
                    "name": "owner",
                    "type": "address"
                }
            ],
            "name": "balanceOf",
            "outputs": [
                {
                    "internalType": "uint256",
                    "name": "",
                    "type": "uint256"
                }
            ],
            "stateMutability": "view",
            "type": "function"
        },
        {
            "inputs": [],
            "name": "baseExtension",
            "outputs": [
                {
                    "internalType": "string",
                    "name": "",
                    "type": "string"
                }
            ],
            "stateMutability": "view",
            "type": "function"
        },
        {
            "inputs": [],
            "name": "baseURI",
            "outputs": [
                {
                    "internalType": "string",
                    "name": "",
                    "type": "string"
                }
            ],
            "stateMutability": "view",
            "type": "function"
        },
        {
            "inputs": [],
            "name": "cost",
            "outputs": [
                {
                    "internalType": "uint256",
                    "name": "",
                    "type": "uint256"
                }
            ],
            "stateMutability": "view",
            "type": "function"
        },
        {
            "inputs": [
                {
                    "internalType": "uint256",
                    "name": "tokenId",
                    "type": "uint256"
                }
            ],
            "name": "getApproved",
            "outputs": [
                {
                    "internalType": "address",
                    "name": "",
                    "type": "address"
                }
            ],
            "stateMutability": "view",
            "type": "function"
        },
        {
            "inputs": [
                {
                    "internalType": "address",
                    "name": "owner",
                    "type": "address"
                },
                {
                    "internalType": "address",
                    "name": "operator",
                    "type": "address"
                }
            ],
            "name": "isApprovedForAll",
            "outputs": [
                {
                    "internalType": "bool",
                    "name": "",
                    "type": "bool"
                }
            ],
            "stateMutability": "view",
            "type": "function"
        },
        {
            "inputs": [],
            "name": "maxSupply",
            "outputs": [
                {
                    "internalType": "uint256",
                    "name": "",
                    "type": "uint256"
                }
            ],
            "stateMutability": "view",
            "type": "function"
        },
        {
            "inputs": [],
            "name": "name",
            "outputs": [
                {
                    "internalType": "string",
                    "name": "",
                    "type": "string"
                }
            ],
            "stateMutability": "view",
            "type": "function"
        },
        {
            "inputs": [],
            "name": "nftPerAddressLimit",
            "outputs": [
                {
                    "internalType": "uint256",
                    "name": "",
                    "type": "uint256"
                }
            ],
            "stateMutability": "view",
            "type": "function"
        },
        {
            "inputs": [],
            "name": "notRevealedUri",
            "outputs": [
                {
                    "internalType": "string",
                    "name": "",
                    "type": "string"
                }
            ],
            "stateMutability": "view",
            "type": "function"
        },
        {
            "inputs": [],
            "name": "onlyWhitelisted",
            "outputs": [
                {
                    "internalType": "bool",
                    "name": "",
                    "type": "bool"
                }
            ],
            "stateMutability": "view",
            "type": "function"
        },
        {
            "inputs": [],
            "name": "owner",
            "outputs": [
                {
                    "internalType": "address",
                    "name": "",
                    "type": "address"
                }
            ],
            "stateMutability": "view",
            "type": "function"
        },
        {
            "inputs": [
                {
                    "internalType": "uint256",
                    "name": "tokenId",
                    "type": "uint256"
                }
            ],
            "name": "ownerOf",
            "outputs": [
                {
                    "internalType": "address",
                    "name": "",
                    "type": "address"
                }
            ],
            "stateMutability": "view",
            "type": "function"
        },
        {
            "inputs": [
                {
                    "internalType": "bool",
                    "name": "_state",
                    "type": "bool"
                }
            ],
            "name": "pause",
            "outputs": [],
            "stateMutability": "nonpayable",
            "type": "function"
        },
        {
            "inputs": [],
            "name": "paused",
            "outputs": [
                {
                    "internalType": "bool",
                    "name": "",
                    "type": "bool"
                }
            ],
            "stateMutability": "view",
            "type": "function"
        },
        {
            "inputs": [],
            "name": "renounceOwnership",
            "outputs": [],
            "stateMutability": "nonpayable",
            "type": "function"
        },
        {
            "inputs": [],
            "name": "reveal",
            "outputs": [],
            "stateMutability": "nonpayable",
            "type": "function"
        },
        {
            "inputs": [],
            "name": "revealed",
            "outputs": [
                {
                    "internalType": "bool",
                    "name": "",
                    "type": "bool"
                }
            ],
            "stateMutability": "view",
            "type": "function"
        },
        {
            "inputs": [
                {
                    "internalType": "address",
                    "name": "from",
                    "type": "address"
                },
                {
                    "internalType": "address",
                    "name": "to",
                    "type": "address"
                },
                {
                    "internalType": "uint256",
                    "name": "tokenId",
                    "type": "uint256"
                }
            ],
            "name": "safeTransferFrom",
            "outputs": [],
            "stateMutability": "nonpayable",
            "type": "function"
        },
        {
            "inputs": [
                {
                    "internalType": "address",
                    "name": "from",
                    "type": "address"
                },
                {
                    "internalType": "address",
                    "name": "to",
                    "type": "address"
                },
                {
                    "internalType": "uint256",
                    "name": "tokenId",
                    "type": "uint256"
                },
                {
                    "internalType": "bytes",
                    "name": "_data",
                    "type": "bytes"
                }
            ],
            "name": "safeTransferFrom",
            "outputs": [],
            "stateMutability": "nonpayable",
            "type": "function"
        },
        {
            "inputs": [
                {
                    "internalType": "address",
                    "name": "operator",
                    "type": "address"
                },
                {
                    "internalType": "bool",
                    "name": "approved",
                    "type": "bool"
                }
            ],
            "name": "setApprovalForAll",
            "outputs": [],
            "stateMutability": "nonpayable",
            "type": "function"
        },
        {
            "inputs": [
                {
                    "internalType": "string",
                    "name": "_newBaseURI",
                    "type": "string"
                }
            ],
            "name": "setBaseURI",
            "outputs": [],
            "stateMutability": "nonpayable",
            "type": "function"
        },
        {
            "inputs": [
                {
                    "internalType": "uint256",
                    "name": "_newCost",
                    "type": "uint256"
                }
            ],
            "name": "setCost",
            "outputs": [],
            "stateMutability": "nonpayable",
            "type": "function"
        },
        {
            "inputs": [
                {
                    "internalType": "string",
                    "name": "_notRevealedURI",
                    "type": "string"
                }
            ],
            "name": "setNotRevealedURI",
            "outputs": [],
            "stateMutability": "nonpayable",
            "type": "function"
        },
        {
            "inputs": [
                {
                    "internalType": "bytes4",
                    "name": "interfaceId",
                    "type": "bytes4"
                }
            ],
            "name": "supportsInterface",
            "outputs": [
                {
                    "internalType": "bool",
                    "name": "",
                    "type": "bool"
                }
            ],
            "stateMutability": "view",
            "type": "function"
        },
        {
            "inputs": [],
            "name": "symbol",
            "outputs": [
                {
                    "internalType": "string",
                    "name": "",
                    "type": "string"
                }
            ],
            "stateMutability": "view",
            "type": "function"
        },
        {
            "inputs": [
                {
                    "internalType": "uint256",
                    "name": "index",
                    "type": "uint256"
                }
            ],
            "name": "tokenByIndex",
            "outputs": [
                {
                    "internalType": "uint256",
                    "name": "",
                    "type": "uint256"
                }
            ],
            "stateMutability": "view",
            "type": "function"
        },
        {
            "inputs": [
                {
                    "internalType": "address",
                    "name": "owner",
                    "type": "address"
                },
                {
                    "internalType": "uint256",
                    "name": "index",
                    "type": "uint256"
                }
            ],
            "name": "tokenOfOwnerByIndex",
            "outputs": [
                {
                    "internalType": "uint256",
                    "name": "",
                    "type": "uint256"
                }
            ],
            "stateMutability": "view",
            "type": "function"
        },
        {
            "inputs": [
                {
                    "internalType": "uint256",
                    "name": "tokenId",
                    "type": "uint256"
                }
            ],
            "name": "tokenURI",
            "outputs": [
                {
                    "internalType": "string",
                    "name": "",
                    "type": "string"
                }
            ],
            "stateMutability": "view",
            "type": "function"
        },
        {
            "inputs": [],
            "name": "totalSupply",
            "outputs": [
                {
                    "internalType": "uint256",
                    "name": "",
                    "type": "uint256"
                }
            ],
            "stateMutability": "view",
            "type": "function"
        },
        {
            "inputs": [
                {
                    "internalType": "address",
                    "name": "from",
                    "type": "address"
                },
                {
                    "internalType": "address",
                    "name": "to",
                    "type": "address"
                },
                {
                    "internalType": "uint256",
                    "name": "tokenId",
                    "type": "uint256"
                }
            ],
            "name": "transferFrom",
            "outputs": [],
            "stateMutability": "nonpayable",
            "type": "function"
        },
        {
            "inputs": [
                {
                    "internalType": "address",
                    "name": "newOwner",
                    "type": "address"
                }
            ],
            "name": "transferOwnership",
            "outputs": [],
            "stateMutability": "nonpayable",
            "type": "function"
        },
        {
            "inputs": [
                {
                    "internalType": "uint256",
                    "name": "",
                    "type": "uint256"
                }
            ],
            "name": "whitelistedAddresses",
            "outputs": [
                {
                    "internalType": "address",
                    "name": "",
                    "type": "address"
                }
            ],
            "stateMutability": "view",
            "type": "function"
        }
    ],
    "bytecode": "612710600c556003600d5560c06040526005608081905264173539b7b760d91b60a09081526200003391600e919062000205565b5066470de4df820000600f556011805462ffffff1916620100001790553480156200005d57600080fd5b50604051620022d4380380620022d4833981016040819052620000809162000378565b8351849084906200009990600090602085019062000205565b508051620000af90600190602084019062000205565b505050620000cc620000c6620000ec60201b60201c565b620000f0565b620000d78262000142565b620000e281620001aa565b505050506200046e565b3390565b600a80546001600160a01b038381166001600160a01b0319831681179093556040519116919082907f8be0079c531659141344cd1fd0a4f28419497f9722a3daafe3b4186f6b6457e090600090a35050565b600a546001600160a01b03163314620001915760405162461bcd60e51b81526020600482018190526024820152600080516020620022b483398151915260448201526064015b60405180910390fd5b8051620001a690600b90602084019062000205565b5050565b600a546001600160a01b03163314620001f55760405162461bcd60e51b81526020600482018190526024820152600080516020620022b4833981519152604482015260640162000188565b8051620001a69060109060208401905b828054620002139062000431565b90600052602060002090601f01602090048101928262000237576000855562000282565b82601f106200025257805160ff191683800117855562000282565b8280016001018555821562000282579182015b828111156200028257825182559160200191906001019062000265565b506200029092915062000294565b5090565b5b8082111562000290576000815560010162000295565b634e487b7160e01b600052604160045260246000fd5b600082601f830112620002d357600080fd5b81516001600160401b0380821115620002f057620002f0620002ab565b604051601f8301601f19908116603f011681019082821181831017156200031b576200031b620002ab565b816040528381526020925086838588010111156200033857600080fd5b600091505b838210156200035c57858201830151818301840152908201906200033d565b838211156200036e5760008385830101525b9695505050505050565b600080600080608085870312156200038f57600080fd5b84516001600160401b0380821115620003a757600080fd5b620003b588838901620002c1565b95506020870151915080821115620003cc57600080fd5b620003da88838901620002c1565b94506040870151915080821115620003f157600080fd5b620003ff88838901620002c1565b935060608701519150808211156200041657600080fd5b506200042587828801620002c1565b91505092959194509250565b600181811c908216806200044657607f821691505b602082108114156200046857634e487b7160e01b600052602260045260246000fd5b50919050565b611e36806200047e6000396000f3fe608060405234801561001057600080fd5b50600436106102115760003560e01c80636352211e11610125578063b88d4fde116100ad578063c87b56dd1161007c578063c87b56dd14610432578063d5abeb0114610445578063e985e9c51461044e578063f2c4ce1e1461048a578063f2fde38b1461049d57600080fd5b8063b88d4fde146103fb578063ba4e5c491461040e578063ba7d2c7614610421578063c66828621461042a57600080fd5b80638da5cb5b116100f45780638da5cb5b146103b457806395d89b41146103c55780639c70b512146103cd578063a22cb465146103e0578063a475b5dd146103f357600080fd5b80636352211e1461037e5780636c0360eb1461039157806370a0823114610399578063715018a6146103ac57600080fd5b806318cae269116101a857806344a0d68a1161017757806344a0d68a146103265780634f6ccce714610339578063518302271461034c57806355f804b31461035e5780635c975abb1461037157600080fd5b806318cae269146102cd57806323b872dd146102ed5780632f745c591461030057806342842e0e1461031357600080fd5b8063081c8c44116101e4578063081c8c4414610293578063095ea7b31461029b57806313faede6146102ae57806318160ddd146102c557600080fd5b806301ffc9a71461021657806302329a291461023e57806306fdde0314610253578063081812fc14610268575b600080fd5b6102296102243660046117ee565b6104b0565b60405190151581526020015b60405180910390f35b61025161024c366004611820565b6104db565b005b61025b610521565b6040516102359190611893565b61027b6102763660046118a6565b6105b3565b6040516001600160a01b039091168152602001610235565b61025b610648565b6102516102a93660046118d6565b6106d6565b6102b7600f5481565b604051908152602001610235565b6008546102b7565b6102b76102db366004611900565b60136020526000908152604090205481565b6102516102fb36600461191b565b6107ec565b6102b761030e3660046118d6565b61081d565b61025161032136600461191b565b6108b3565b6102516103343660046118a6565b6108ce565b6102b76103473660046118a6565b6108fd565b60115461022990610100900460ff1681565b61025161036c3660046119e3565b610990565b6011546102299060ff1681565b61027b61038c3660046118a6565b6109d1565b61025b610a48565b6102b76103a7366004611900565b610a55565b610251610adc565b600a546001600160a01b031661027b565b61025b610b12565b6011546102299062010000900460ff1681565b6102516103ee366004611a2c565b610b21565b610251610b2c565b610251610409366004611a5f565b610b67565b61027b61041c3660046118a6565b610b9f565b6102b7600d5481565b61025b610bc9565b61025b6104403660046118a6565b610bd6565b6102b7600c5481565b61022961045c366004611adb565b6001600160a01b03918216600090815260056020908152604080832093909416825291909152205460ff1690565b6102516104983660046119e3565b610d55565b6102516104ab366004611900565b610d92565b60006001600160e01b0319821663780e9d6360e01b14806104d557506104d582610e2d565b92915050565b600a546001600160a01b0316331461050e5760405162461bcd60e51b815260040161050590611b05565b60405180910390fd5b6011805460ff1916911515919091179055565b60606000805461053090611b3a565b80601f016020809104026020016040519081016040528092919081815260200182805461055c90611b3a565b80156105a95780601f1061057e576101008083540402835291602001916105a9565b820191906000526020600020905b81548152906001019060200180831161058c57829003601f168201915b5050505050905090565b6000818152600260205260408120546001600160a01b031661062c5760405162461bcd60e51b815260206004820152602c60248201527f4552433732313a20617070726f76656420717565727920666f72206e6f6e657860448201526b34b9ba32b73a103a37b5b2b760a11b6064820152608401610505565b506000908152600460205260409020546001600160a01b031690565b6010805461065590611b3a565b80601f016020809104026020016040519081016040528092919081815260200182805461068190611b3a565b80156106ce5780601f106106a3576101008083540402835291602001916106ce565b820191906000526020600020905b8154815290600101906020018083116106b157829003601f168201915b505050505081565b60006106e1826109d1565b9050806001600160a01b0316836001600160a01b0316141561074f5760405162461bcd60e51b815260206004820152602160248201527f4552433732313a20617070726f76616c20746f2063757272656e74206f776e656044820152603960f91b6064820152608401610505565b336001600160a01b038216148061076b575061076b813361045c565b6107dd5760405162461bcd60e51b815260206004820152603860248201527f4552433732313a20617070726f76652063616c6c6572206973206e6f74206f7760448201527f6e6572206e6f7220617070726f76656420666f7220616c6c00000000000000006064820152608401610505565b6107e78383610e7d565b505050565b6107f63382610eeb565b6108125760405162461bcd60e51b815260040161050590611b75565b6107e7838383610fe2565b600061082883610a55565b821061088a5760405162461bcd60e51b815260206004820152602b60248201527f455243373231456e756d657261626c653a206f776e657220696e646578206f7560448201526a74206f6620626f756e647360a81b6064820152608401610505565b506001600160a01b03919091166000908152600660209081526040808320938352929052205490565b6107e783838360405180602001604052806000815250610b67565b600a546001600160a01b031633146108f85760405162461bcd60e51b815260040161050590611b05565b600f55565b600061090860085490565b821061096b5760405162461bcd60e51b815260206004820152602c60248201527f455243373231456e756d657261626c653a20676c6f62616c20696e646578206f60448201526b7574206f6620626f756e647360a01b6064820152608401610505565b6008828154811061097e5761097e611bc6565b90600052602060002001549050919050565b600a546001600160a01b031633146109ba5760405162461bcd60e51b815260040161050590611b05565b80516109cd90600b90602084019061173f565b5050565b6000818152600260205260408120546001600160a01b0316806104d55760405162461bcd60e51b815260206004820152602960248201527f4552433732313a206f776e657220717565727920666f72206e6f6e657869737460448201526832b73a103a37b5b2b760b91b6064820152608401610505565b600b805461065590611b3a565b60006001600160a01b038216610ac05760405162461bcd60e51b815260206004820152602a60248201527f4552433732313a2062616c616e636520717565727920666f7220746865207a65604482015269726f206164647265737360b01b6064820152608401610505565b506001600160a01b031660009081526003602052604090205490565b600a546001600160a01b03163314610b065760405162461bcd60e51b815260040161050590611b05565b610b106000611189565b565b60606001805461053090611b3a565b6109cd3383836111db565b600a546001600160a01b03163314610b565760405162461bcd60e51b815260040161050590611b05565b6011805461ff001916610100179055565b610b713383610eeb565b610b8d5760405162461bcd60e51b815260040161050590611b75565b610b99848484846112aa565b50505050565b60128181548110610baf57600080fd5b6000918252602090912001546001600160a01b0316905081565b600e805461065590611b3a565b6000818152600260205260409020546060906001600160a01b0316610c555760405162461bcd60e51b815260206004820152602f60248201527f4552433732314d657461646174613a2055524920717565727920666f72206e6f60448201526e3732bc34b9ba32b73a103a37b5b2b760891b6064820152608401610505565b601154610100900460ff16610cf65760108054610c7190611b3a565b80601f0160208091040260200160405190810160405280929190818152602001828054610c9d90611b3a565b8015610cea5780601f10610cbf57610100808354040283529160200191610cea565b820191906000526020600020905b815481529060010190602001808311610ccd57829003601f168201915b50505050509050919050565b6000610d006112dd565b90506000815111610d205760405180602001604052806000815250610d4e565b80610d2a846112ec565b600e604051602001610d3e93929190611bdc565b6040516020818303038152906040525b9392505050565b600a546001600160a01b03163314610d7f5760405162461bcd60e51b815260040161050590611b05565b80516109cd90601090602084019061173f565b600a546001600160a01b03163314610dbc5760405162461bcd60e51b815260040161050590611b05565b6001600160a01b038116610e215760405162461bcd60e51b815260206004820152602660248201527f4f776e61626c653a206e6577206f776e657220697320746865207a65726f206160448201526564647265737360d01b6064820152608401610505565b610e2a81611189565b50565b60006001600160e01b031982166380ac58cd60e01b1480610e5e57506001600160e01b03198216635b5e139f60e01b145b806104d557506301ffc9a760e01b6001600160e01b03198316146104d5565b600081815260046020526040902080546001600160a01b0319166001600160a01b0384169081179091558190610eb2826109d1565b6001600160a01b03167f8c5be1e5ebec7d5bd14f71427d1e84f3dd0314c0f7b2291e5b200ac8c7c3b92560405160405180910390a45050565b6000818152600260205260408120546001600160a01b0316610f645760405162461bcd60e51b815260206004820152602c60248201527f4552433732313a206f70657261746f7220717565727920666f72206e6f6e657860448201526b34b9ba32b73a103a37b5b2b760a11b6064820152608401610505565b6000610f6f836109d1565b9050806001600160a01b0316846001600160a01b03161480610faa5750836001600160a01b0316610f9f846105b3565b6001600160a01b0316145b80610fda57506001600160a01b0380821660009081526005602090815260408083209388168352929052205460ff165b949350505050565b826001600160a01b0316610ff5826109d1565b6001600160a01b0316146110595760405162461bcd60e51b815260206004820152602560248201527f4552433732313a207472616e736665722066726f6d20696e636f72726563742060448201526437bbb732b960d91b6064820152608401610505565b6001600160a01b0382166110bb5760405162461bcd60e51b8152602060048201526024808201527f4552433732313a207472616e7366657220746f20746865207a65726f206164646044820152637265737360e01b6064820152608401610505565b6110c68383836113ea565b6110d1600082610e7d565b6001600160a01b03831660009081526003602052604081208054600192906110fa908490611cb6565b90915550506001600160a01b0382166000908152600360205260408120805460019290611128908490611ccd565b909155505060008181526002602052604080822080546001600160a01b0319166001600160a01b0386811691821790925591518493918716917fddf252ad1be2c89b69c2b068fc378daa952ba7f163c4a11628f55a4df523b3ef91a4505050565b600a80546001600160a01b038381166001600160a01b0319831681179093556040519116919082907f8be0079c531659141344cd1fd0a4f28419497f9722a3daafe3b4186f6b6457e090600090a35050565b816001600160a01b0316836001600160a01b0316141561123d5760405162461bcd60e51b815260206004820152601960248201527f4552433732313a20617070726f766520746f2063616c6c6572000000000000006044820152606401610505565b6001600160a01b03838116600081815260056020908152604080832094871680845294825291829020805460ff191686151590811790915591519182527f17307eab39ab6107e8899845ad3d59bd9653f200f220920489ca2b5937696c31910160405180910390a3505050565b6112b5848484610fe2565b6112c1848484846114a2565b610b995760405162461bcd60e51b815260040161050590611ce5565b6060600b805461053090611b3a565b6060816113105750506040805180820190915260018152600360fc1b602082015290565b8160005b811561133a578061132481611d37565b91506113339050600a83611d68565b9150611314565b60008167ffffffffffffffff81111561135557611355611957565b6040519080825280601f01601f19166020018201604052801561137f576020820181803683370190505b5090505b8415610fda57611394600183611cb6565b91506113a1600a86611d7c565b6113ac906030611ccd565b60f81b8183815181106113c1576113c1611bc6565b60200101906001600160f81b031916908160001a9053506113e3600a86611d68565b9450611383565b6001600160a01b0383166114455761144081600880546000838152600960205260408120829055600182018355919091527ff3f7a9fe364faab93b216da50a3214154f22a0a2b415b23a84c8169e8b636ee30155565b611468565b816001600160a01b0316836001600160a01b0316146114685761146883826115af565b6001600160a01b03821661147f576107e78161164c565b826001600160a01b0316826001600160a01b0316146107e7576107e782826116fb565b60006001600160a01b0384163b156115a457604051630a85bd0160e11b81526001600160a01b0385169063150b7a02906114e6903390899088908890600401611d90565b602060405180830381600087803b15801561150057600080fd5b505af1925050508015611530575060408051601f3d908101601f1916820190925261152d91810190611dcd565b60015b61158a573d80801561155e576040519150601f19603f3d011682016040523d82523d6000602084013e611563565b606091505b5080516115825760405162461bcd60e51b815260040161050590611ce5565b805181602001fd5b6001600160e01b031916630a85bd0160e11b149050610fda565b506001949350505050565b600060016115bc84610a55565b6115c69190611cb6565b600083815260076020526040902054909150808214611619576001600160a01b03841660009081526006602090815260408083208584528252808320548484528184208190558352600790915290208190555b5060009182526007602090815260408084208490556001600160a01b039094168352600681528383209183525290812055565b60085460009061165e90600190611cb6565b6000838152600960205260408120546008805493945090928490811061168657611686611bc6565b9060005260206000200154905080600883815481106116a7576116a7611bc6565b60009182526020808320909101929092558281526009909152604080822084905585825281205560088054806116df576116df611dea565b6001900381819060005260206000200160009055905550505050565b600061170683610a55565b6001600160a01b039093166000908152600660209081526040808320868452825280832085905593825260079052919091209190915550565b82805461174b90611b3a565b90600052602060002090601f01602090048101928261176d57600085556117b3565b82601f1061178657805160ff19168380011785556117b3565b828001600101855582156117b3579182015b828111156117b3578251825591602001919060010190611798565b506117bf9291506117c3565b5090565b5b808211156117bf57600081556001016117c4565b6001600160e01b031981168114610e2a57600080fd5b60006020828403121561180057600080fd5b8135610d4e816117d8565b8035801515811461181b57600080fd5b919050565b60006020828403121561183257600080fd5b610d4e8261180b565b60005b8381101561185657818101518382015260200161183e565b83811115610b995750506000910152565b6000815180845261187f81602086016020860161183b565b601f01601f19169290920160200192915050565b602081526000610d4e6020830184611867565b6000602082840312156118b857600080fd5b5035919050565b80356001600160a01b038116811461181b57600080fd5b600080604083850312156118e957600080fd5b6118f2836118bf565b946020939093013593505050565b60006020828403121561191257600080fd5b610d4e826118bf565b60008060006060848603121561193057600080fd5b611939846118bf565b9250611947602085016118bf565b9150604084013590509250925092565b634e487b7160e01b600052604160045260246000fd5b600067ffffffffffffffff8084111561198857611988611957565b604051601f8501601f19908116603f011681019082821181831017156119b0576119b0611957565b816040528093508581528686860111156119c957600080fd5b858560208301376000602087830101525050509392505050565b6000602082840312156119f557600080fd5b813567ffffffffffffffff811115611a0c57600080fd5b8201601f81018413611a1d57600080fd5b610fda8482356020840161196d565b60008060408385031215611a3f57600080fd5b611a48836118bf565b9150611a566020840161180b565b90509250929050565b60008060008060808587031215611a7557600080fd5b611a7e856118bf565b9350611a8c602086016118bf565b925060408501359150606085013567ffffffffffffffff811115611aaf57600080fd5b8501601f81018713611ac057600080fd5b611acf8782356020840161196d565b91505092959194509250565b60008060408385031215611aee57600080fd5b611af7836118bf565b9150611a56602084016118bf565b6020808252818101527f4f776e61626c653a2063616c6c6572206973206e6f7420746865206f776e6572604082015260600190565b600181811c90821680611b4e57607f821691505b60208210811415611b6f57634e487b7160e01b600052602260045260246000fd5b50919050565b60208082526031908201527f4552433732313a207472616e736665722063616c6c6572206973206e6f74206f6040820152701ddb995c881b9bdc88185c1c1c9bdd9959607a1b606082015260800190565b634e487b7160e01b600052603260045260246000fd5b600084516020611bef8285838a0161183b565b855191840191611c028184848a0161183b565b8554920191600090600181811c9080831680611c1f57607f831692505b858310811415611c3d57634e487b7160e01b85526022600452602485fd5b808015611c515760018114611c6257611c8f565b60ff19851688528388019550611c8f565b60008b81526020902060005b85811015611c875781548a820152908401908801611c6e565b505083880195505b50939b9a5050505050505050505050565b634e487b7160e01b600052601160045260246000fd5b600082821015611cc857611cc8611ca0565b500390565b60008219821115611ce057611ce0611ca0565b500190565b60208082526032908201527f4552433732313a207472616e7366657220746f206e6f6e20455243373231526560408201527131b2b4bb32b91034b6b83632b6b2b73a32b960711b606082015260800190565b6000600019821415611d4b57611d4b611ca0565b5060010190565b634e487b7160e01b600052601260045260246000fd5b600082611d7757611d77611d52565b500490565b600082611d8b57611d8b611d52565b500690565b6001600160a01b0385811682528416602082015260408101839052608060608201819052600090611dc390830184611867565b9695505050505050565b600060208284031215611ddf57600080fd5b8151610d4e816117d8565b634e487b7160e01b600052603160045260246000fdfea2646970667358221220c044ab997ca63c33d48cdb95edd42cb05be7e7632ea55261f440cbaafae8113b64736f6c634300080900334f776e61626c653a2063616c6c6572206973206e6f7420746865206f776e6572",
    "sourcePath": "d:/OneDrive/BlockChain/workspace/chordusarenacontract/contracts/ChordusArena.sol",
    "compiler": {
        "name": "solc",
        "version": "0.8.9+commit.e5eed63a"
    },
    "functionHashes": {
        "addressMintedBalance(address)": "18cae269",
        "approve(address,uint256)": "095ea7b3",
        "balanceOf(address)": "70a08231",
        "baseExtension()": "c6682862",
        "baseURI()": "6c0360eb",
        "cost()": "13faede6",
        "getApproved(uint256)": "081812fc",
        "isApprovedForAll(address,address)": "e985e9c5",
        "maxSupply()": "d5abeb01",
        "name()": "06fdde03",
        "nftPerAddressLimit()": "ba7d2c76",
        "notRevealedUri()": "081c8c44",
        "onlyWhitelisted()": "9c70b512",
        "owner()": "8da5cb5b",
        "ownerOf(uint256)": "6352211e",
        "pause(bool)": "02329a29",
        "paused()": "5c975abb",
        "renounceOwnership()": "715018a6",
        "reveal()": "a475b5dd",
        "revealed()": "51830227",
        "safeTransferFrom(address,address,uint256)": "42842e0e",
        "safeTransferFrom(address,address,uint256,bytes)": "b88d4fde",
        "setApprovalForAll(address,bool)": "a22cb465",
        "setBaseURI(string)": "55f804b3",
        "setCost(uint256)": "44a0d68a",
        "setNotRevealedURI(string)": "f2c4ce1e",
        "supportsInterface(bytes4)": "01ffc9a7",
        "symbol()": "95d89b41",
        "tokenByIndex(uint256)": "4f6ccce7",
        "tokenOfOwnerByIndex(address,uint256)": "2f745c59",
        "tokenURI(uint256)": "c87b56dd",
        "totalSupply()": "18160ddd",
        "transferFrom(address,address,uint256)": "23b872dd",
        "transferOwnership(address)": "f2fde38b",
        "whitelistedAddresses(uint256)": "ba4e5c49"
    },
    "gasEstimates": {
        "creation": {
            "codeDepositCost": "1546800",
            "executionCost": "infinite",
            "totalCost": "infinite"
        },
        "external": {
            "addressMintedBalance(address)": "2565",
            "approve(address,uint256)": "infinite",
            "balanceOf(address)": "2679",
            "baseExtension()": "infinite",
            "baseURI()": "infinite",
            "cost()": "2385",
            "getApproved(uint256)": "4805",
            "isApprovedForAll(address,address)": "infinite",
            "maxSupply()": "2361",
            "name()": "infinite",
            "nftPerAddressLimit()": "2384",
            "notRevealedUri()": "infinite",
            "onlyWhitelisted()": "2399",
            "owner()": "2376",
            "ownerOf(uint256)": "2602",
            "pause(bool)": "26738",
            "paused()": "2432",
            "renounceOwnership()": "28229",
            "reveal()": "26641",
            "revealed()": "2399",
            "safeTransferFrom(address,address,uint256)": "infinite",
            "safeTransferFrom(address,address,uint256,bytes)": "infinite",
            "setApprovalForAll(address,bool)": "infinite",
            "setBaseURI(string)": "infinite",
            "setCost(uint256)": "24509",
            "setNotRevealedURI(string)": "infinite",
            "supportsInterface(bytes4)": "infinite",
            "symbol()": "infinite",
            "tokenByIndex(uint256)": "6782",
            "tokenOfOwnerByIndex(address,uint256)": "5020",
            "tokenURI(uint256)": "infinite",
            "totalSupply()": "2404",
            "transferFrom(address,address,uint256)": "infinite",
            "transferOwnership(address)": "28444",
            "whitelistedAddresses(uint256)": "4681"
        },
        "internal": {
            "_baseURI()": "infinite"
        }
    }
}