{
  "contractName": "ChordusArena",
  "abi": [
    {
      "inputs": [
        {
          "internalType": "string",
          "name": "_name",
          "type": "string"
        },
        {
          "internalType": "string",
          "name": "_symbol",
          "type": "string"
        },
        {
          "internalType": "string",
          "name": "_initBaseURI",
          "type": "string"
        },
        {
          "internalType": "string",
          "name": "_initNotRevealedUri",
          "type": "string"
        }
      ],
      "stateMutability": "nonpayable",
      "type": "constructor"
    },
    {
      "anonymous": false,
      "inputs": [
        {
          "indexed": true,
          "internalType": "address",
          "name": "owner",
          "type": "address"
        },
        {
          "indexed": true,
          "internalType": "address",
          "name": "approved",
          "type": "address"
        },
        {
          "indexed": true,
          "internalType": "uint256",
          "name": "tokenId",
          "type": "uint256"
        }
      ],
      "name": "Approval",
      "type": "event"
    },
    {
      "anonymous": false,
      "inputs": [
        {
          "indexed": true,
          "internalType": "address",
          "name": "owner",
          "type": "address"
        },
        {
          "indexed": true,
          "internalType": "address",
          "name": "operator",
          "type": "address"
        },
        {
          "indexed": false,
          "internalType": "bool",
          "name": "approved",
          "type": "bool"
        }
      ],
      "name": "ApprovalForAll",
      "type": "event"
    },
    {
      "anonymous": false,
      "inputs": [
        {
          "indexed": true,
          "internalType": "address",
          "name": "previousOwner",
          "type": "address"
        },
        {
          "indexed": true,
          "internalType": "address",
          "name": "newOwner",
          "type": "address"
        }
      ],
      "name": "OwnershipTransferred",
      "type": "event"
    },
    {
      "anonymous": false,
      "inputs": [
        {
          "indexed": true,
          "internalType": "address",
          "name": "from",
          "type": "address"
        },
        {
          "indexed": true,
          "internalType": "address",
          "name": "to",
          "type": "address"
        },
        {
          "indexed": true,
          "internalType": "uint256",
          "name": "tokenId",
          "type": "uint256"
        }
      ],
      "name": "Transfer",
      "type": "event"
    },
    {
      "inputs": [
        {
          "internalType": "address",
          "name": "",
          "type": "address"
        }
      ],
      "name": "addressMintedBalance",
      "outputs": [
        {
          "internalType": "uint256",
          "name": "",
          "type": "uint256"
        }
      ],
      "stateMutability": "view",
      "type": "function",
      "constant": true
    },
    {
      "inputs": [
        {
          "internalType": "address",
          "name": "to",
          "type": "address"
        },
        {
          "internalType": "uint256",
          "name": "tokenId",
          "type": "uint256"
        }
      ],
      "name": "approve",
      "outputs": [],
      "stateMutability": "nonpayable",
      "type": "function"
    },
    {
      "inputs": [
        {
          "internalType": "address",
          "name": "owner",
          "type": "address"
        }
      ],
      "name": "balanceOf",
      "outputs": [
        {
          "internalType": "uint256",
          "name": "",
          "type": "uint256"
        }
      ],
      "stateMutability": "view",
      "type": "function",
      "constant": true
    },
    {
      "inputs": [],
      "name": "baseExtension",
      "outputs": [
        {
          "internalType": "string",
          "name": "",
          "type": "string"
        }
      ],
      "stateMutability": "view",
      "type": "function",
      "constant": true
    },
    {
      "inputs": [],
      "name": "baseURI",
      "outputs": [
        {
          "internalType": "string",
          "name": "",
          "type": "string"
        }
      ],
      "stateMutability": "view",
      "type": "function",
      "constant": true
    },
    {
      "inputs": [],
      "name": "cost",
      "outputs": [
        {
          "internalType": "uint256",
          "name": "",
          "type": "uint256"
        }
      ],
      "stateMutability": "view",
      "type": "function",
      "constant": true
    },
    {
      "inputs": [
        {
          "internalType": "uint256",
          "name": "tokenId",
          "type": "uint256"
        }
      ],
      "name": "getApproved",
      "outputs": [
        {
          "internalType": "address",
          "name": "",
          "type": "address"
        }
      ],
      "stateMutability": "view",
      "type": "function",
      "constant": true
    },
    {
      "inputs": [
        {
          "internalType": "address",
          "name": "owner",
          "type": "address"
        },
        {
          "internalType": "address",
          "name": "operator",
          "type": "address"
        }
      ],
      "name": "isApprovedForAll",
      "outputs": [
        {
          "internalType": "bool",
          "name": "",
          "type": "bool"
        }
      ],
      "stateMutability": "view",
      "type": "function",
      "constant": true
    },
    {
      "inputs": [],
      "name": "maxMintAmount",
      "outputs": [
        {
          "internalType": "uint256",
          "name": "",
          "type": "uint256"
        }
      ],
      "stateMutability": "view",
      "type": "function",
      "constant": true
    },
    {
      "inputs": [],
      "name": "maxSupply",
      "outputs": [
        {
          "internalType": "uint256",
          "name": "",
          "type": "uint256"
        }
      ],
      "stateMutability": "view",
      "type": "function",
      "constant": true
    },
    {
      "inputs": [],
      "name": "name",
      "outputs": [
        {
          "internalType": "string",
          "name": "",
          "type": "string"
        }
      ],
      "stateMutability": "view",
      "type": "function",
      "constant": true
    },
    {
      "inputs": [],
      "name": "nftPerAddressLimit",
      "outputs": [
        {
          "internalType": "uint256",
          "name": "",
          "type": "uint256"
        }
      ],
      "stateMutability": "view",
      "type": "function",
      "constant": true
    },
    {
      "inputs": [],
      "name": "notRevealedUri",
      "outputs": [
        {
          "internalType": "string",
          "name": "",
          "type": "string"
        }
      ],
      "stateMutability": "view",
      "type": "function",
      "constant": true
    },
    {
      "inputs": [],
      "name": "onlyWhitelisted",
      "outputs": [
        {
          "internalType": "bool",
          "name": "",
          "type": "bool"
        }
      ],
      "stateMutability": "view",
      "type": "function",
      "constant": true
    },
    {
      "inputs": [],
      "name": "owner",
      "outputs": [
        {
          "internalType": "address",
          "name": "",
          "type": "address"
        }
      ],
      "stateMutability": "view",
      "type": "function",
      "constant": true
    },
    {
      "inputs": [
        {
          "internalType": "uint256",
          "name": "tokenId",
          "type": "uint256"
        }
      ],
      "name": "ownerOf",
      "outputs": [
        {
          "internalType": "address",
          "name": "",
          "type": "address"
        }
      ],
      "stateMutability": "view",
      "type": "function",
      "constant": true
    },
    {
      "inputs": [],
      "name": "paused",
      "outputs": [
        {
          "internalType": "bool",
          "name": "",
          "type": "bool"
        }
      ],
      "stateMutability": "view",
      "type": "function",
      "constant": true
    },
    {
      "inputs": [],
      "name": "renounceOwnership",
      "outputs": [],
      "stateMutability": "nonpayable",
      "type": "function"
    },
    {
      "inputs": [],
      "name": "revealed",
      "outputs": [
        {
          "internalType": "bool",
          "name": "",
          "type": "bool"
        }
      ],
      "stateMutability": "view",
      "type": "function",
      "constant": true
    },
    {
      "inputs": [
        {
          "internalType": "address",
          "name": "from",
          "type": "address"
        },
        {
          "internalType": "address",
          "name": "to",
          "type": "address"
        },
        {
          "internalType": "uint256",
          "name": "tokenId",
          "type": "uint256"
        }
      ],
      "name": "safeTransferFrom",
      "outputs": [],
      "stateMutability": "nonpayable",
      "type": "function"
    },
    {
      "inputs": [
        {
          "internalType": "address",
          "name": "from",
          "type": "address"
        },
        {
          "internalType": "address",
          "name": "to",
          "type": "address"
        },
        {
          "internalType": "uint256",
          "name": "tokenId",
          "type": "uint256"
        },
        {
          "internalType": "bytes",
          "name": "_data",
          "type": "bytes"
        }
      ],
      "name": "safeTransferFrom",
      "outputs": [],
      "stateMutability": "nonpayable",
      "type": "function"
    },
    {
      "inputs": [
        {
          "internalType": "address",
          "name": "operator",
          "type": "address"
        },
        {
          "internalType": "bool",
          "name": "approved",
          "type": "bool"
        }
      ],
      "name": "setApprovalForAll",
      "outputs": [],
      "stateMutability": "nonpayable",
      "type": "function"
    },
    {
      "inputs": [
        {
          "internalType": "bytes4",
          "name": "interfaceId",
          "type": "bytes4"
        }
      ],
      "name": "supportsInterface",
      "outputs": [
        {
          "internalType": "bool",
          "name": "",
          "type": "bool"
        }
      ],
      "stateMutability": "view",
      "type": "function",
      "constant": true
    },
    {
      "inputs": [],
      "name": "symbol",
      "outputs": [
        {
          "internalType": "string",
          "name": "",
          "type": "string"
        }
      ],
      "stateMutability": "view",
      "type": "function",
      "constant": true
    },
    {
      "inputs": [
        {
          "internalType": "uint256",
          "name": "index",
          "type": "uint256"
        }
      ],
      "name": "tokenByIndex",
      "outputs": [
        {
          "internalType": "uint256",
          "name": "",
          "type": "uint256"
        }
      ],
      "stateMutability": "view",
      "type": "function",
      "constant": true
    },
    {
      "inputs": [
        {
          "internalType": "address",
          "name": "owner",
          "type": "address"
        },
        {
          "internalType": "uint256",
          "name": "index",
          "type": "uint256"
        }
      ],
      "name": "tokenOfOwnerByIndex",
      "outputs": [
        {
          "internalType": "uint256",
          "name": "",
          "type": "uint256"
        }
      ],
      "stateMutability": "view",
      "type": "function",
      "constant": true
    },
    {
      "inputs": [],
      "name": "totalSupply",
      "outputs": [
        {
          "internalType": "uint256",
          "name": "",
          "type": "uint256"
        }
      ],
      "stateMutability": "view",
      "type": "function",
      "constant": true
    },
    {
      "inputs": [
        {
          "internalType": "address",
          "name": "from",
          "type": "address"
        },
        {
          "internalType": "address",
          "name": "to",
          "type": "address"
        },
        {
          "internalType": "uint256",
          "name": "tokenId",
          "type": "uint256"
        }
      ],
      "name": "transferFrom",
      "outputs": [],
      "stateMutability": "nonpayable",
      "type": "function"
    },
    {
      "inputs": [
        {
          "internalType": "address",
          "name": "newOwner",
          "type": "address"
        }
      ],
      "name": "transferOwnership",
      "outputs": [],
      "stateMutability": "nonpayable",
      "type": "function"
    },
    {
      "inputs": [
        {
          "internalType": "uint256",
          "name": "",
          "type": "uint256"
        }
      ],
      "name": "whitelistedAddresses",
      "outputs": [
        {
          "internalType": "address",
          "name": "",
          "type": "address"
        }
      ],
      "stateMutability": "view",
      "type": "function",
      "constant": true
    },
    {
      "inputs": [
        {
          "internalType": "uint256",
          "name": "_mintAmount",
          "type": "uint256"
        }
      ],
      "name": "mint",
      "outputs": [],
      "stateMutability": "payable",
      "type": "function",
      "payable": true
    },
    {
      "inputs": [
        {
          "internalType": "address",
          "name": "_user",
          "type": "address"
        }
      ],
      "name": "isWhitelisted",
      "outputs": [
        {
          "internalType": "bool",
          "name": "",
          "type": "bool"
        }
      ],
      "stateMutability": "view",
      "type": "function",
      "constant": true
    },
    {
      "inputs": [
        {
          "internalType": "address",
          "name": "_owner",
          "type": "address"
        }
      ],
      "name": "walletOfOwner",
      "outputs": [
        {
          "internalType": "uint256[]",
          "name": "",
          "type": "uint256[]"
        }
      ],
      "stateMutability": "view",
      "type": "function",
      "constant": true
    },
    {
      "inputs": [
        {
          "internalType": "uint256",
          "name": "tokenId",
          "type": "uint256"
        }
      ],
      "name": "tokenURI",
      "outputs": [
        {
          "internalType": "string",
          "name": "",
          "type": "string"
        }
      ],
      "stateMutability": "view",
      "type": "function",
      "constant": true
    },
    {
      "inputs": [],
      "name": "reveal",
      "outputs": [],
      "stateMutability": "nonpayable",
      "type": "function"
    },
    {
      "inputs": [
        {
          "internalType": "uint256",
          "name": "_limit",
          "type": "uint256"
        }
      ],
      "name": "setNftPerAddressLimit",
      "outputs": [],
      "stateMutability": "nonpayable",
      "type": "function"
    },
    {
      "inputs": [
        {
          "internalType": "uint256",
          "name": "_newCost",
          "type": "uint256"
        }
      ],
      "name": "setCost",
      "outputs": [],
      "stateMutability": "nonpayable",
      "type": "function"
    },
    {
      "inputs": [
        {
          "internalType": "uint256",
          "name": "_newmaxMintAmount",
          "type": "uint256"
        }
      ],
      "name": "setmaxMintAmount",
      "outputs": [],
      "stateMutability": "nonpayable",
      "type": "function"
    },
    {
      "inputs": [
        {
          "internalType": "string",
          "name": "_newBaseURI",
          "type": "string"
        }
      ],
      "name": "setBaseURI",
      "outputs": [],
      "stateMutability": "nonpayable",
      "type": "function"
    },
    {
      "inputs": [
        {
          "internalType": "string",
          "name": "_newBaseExtension",
          "type": "string"
        }
      ],
      "name": "setBaseExtension",
      "outputs": [],
      "stateMutability": "nonpayable",
      "type": "function"
    },
    {
      "inputs": [
        {
          "internalType": "string",
          "name": "_notRevealedURI",
          "type": "string"
        }
      ],
      "name": "setNotRevealedURI",
      "outputs": [],
      "stateMutability": "nonpayable",
      "type": "function"
    },
    {
      "inputs": [
        {
          "internalType": "bool",
          "name": "_state",
          "type": "bool"
        }
      ],
      "name": "pause",
      "outputs": [],
      "stateMutability": "nonpayable",
      "type": "function"
    },
    {
      "inputs": [
        {
          "internalType": "bool",
          "name": "_state",
          "type": "bool"
        }
      ],
      "name": "setOnlyWhitelisted",
      "outputs": [],
      "stateMutability": "nonpayable",
      "type": "function"
    },
    {
      "inputs": [
        {
          "internalType": "address[]",
          "name": "_users",
          "type": "address[]"
        }
      ],
      "name": "whitelistUsers",
      "outputs": [],
      "stateMutability": "nonpayable",
      "type": "function"
    },
    {
      "inputs": [],
      "name": "withdraw",
      "outputs": [],
      "stateMutability": "payable",
      "type": "function",
      "payable": true
    }
  ],
  "bytecode": "0x60806040526040518060400160405280600581526020017f2e6a736f6e000000000000000000000000000000000000000000000000000000815250600c908051906020019062000051929190620003c2565b50670de0b6b3a7640000600e55612710600f55601460105560036011556000601260006101000a81548160ff0219169083151502179055506000601260016101000a81548160ff0219169083151502179055506001601260026101000a81548160ff021916908315150217905550348015620000cc57600080fd5b5060405162005908380380620059088339818101604052810190620000f291906200060f565b838381600090805190602001906200010c929190620003c2565b50806001908051906020019062000125929190620003c2565b505050620001486200013c6200017460201b60201c565b6200017c60201b60201c565b62000159826200024260201b60201c565b6200016a81620002ed60201b60201c565b50505050620007e5565b600033905090565b6000600a60009054906101000a900473ffffffffffffffffffffffffffffffffffffffff16905081600a60006101000a81548173ffffffffffffffffffffffffffffffffffffffff021916908373ffffffffffffffffffffffffffffffffffffffff1602179055508173ffffffffffffffffffffffffffffffffffffffff168173ffffffffffffffffffffffffffffffffffffffff167f8be0079c531659141344cd1fd0a4f28419497f9722a3daafe3b4186f6b6457e060405160405180910390a35050565b620002526200017460201b60201c565b73ffffffffffffffffffffffffffffffffffffffff16620002786200039860201b60201c565b73ffffffffffffffffffffffffffffffffffffffff1614620002d1576040517f08c379a0000000000000000000000000000000000000000000000000000000008152600401620002c8906200075e565b60405180910390fd5b80600b9080519060200190620002e9929190620003c2565b5050565b620002fd6200017460201b60201c565b73ffffffffffffffffffffffffffffffffffffffff16620003236200039860201b60201c565b73ffffffffffffffffffffffffffffffffffffffff16146200037c576040517f08c379a000000000000000000000000000000000000000000000000000000000815260040162000373906200075e565b60405180910390fd5b80600d908051906020019062000394929190620003c2565b5050565b6000600a60009054906101000a900473ffffffffffffffffffffffffffffffffffffffff16905090565b828054620003d090620007af565b90600052602060002090601f016020900481019282620003f4576000855562000440565b82601f106200040f57805160ff191683800117855562000440565b8280016001018555821562000440579182015b828111156200043f57825182559160200191906001019062000422565b5b5090506200044f919062000453565b5090565b5b808211156200046e57600081600090555060010162000454565b5090565b6000604051905090565b600080fd5b600080fd5b600080fd5b600080fd5b6000601f19601f8301169050919050565b7f4e487b7100000000000000000000000000000000000000000000000000000000600052604160045260246000fd5b620004db8262000490565b810181811067ffffffffffffffff82111715620004fd57620004fc620004a1565b5b80604052505050565b60006200051262000472565b9050620005208282620004d0565b919050565b600067ffffffffffffffff821115620005435762000542620004a1565b5b6200054e8262000490565b9050602081019050919050565b60005b838110156200057b5780820151818401526020810190506200055e565b838111156200058b576000848401525b50505050565b6000620005a8620005a28462000525565b62000506565b905082815260208101848484011115620005c757620005c66200048b565b5b620005d48482856200055b565b509392505050565b600082601f830112620005f457620005f362000486565b5b81516200060684826020860162000591565b91505092915050565b600080600080608085870312156200062c576200062b6200047c565b5b600085015167ffffffffffffffff8111156200064d576200064c62000481565b5b6200065b87828801620005dc565b945050602085015167ffffffffffffffff8111156200067f576200067e62000481565b5b6200068d87828801620005dc565b935050604085015167ffffffffffffffff811115620006b157620006b062000481565b5b620006bf87828801620005dc565b925050606085015167ffffffffffffffff811115620006e357620006e262000481565b5b620006f187828801620005dc565b91505092959194509250565b600082825260208201905092915050565b7f4f776e61626c653a2063616c6c6572206973206e6f7420746865206f776e6572600082015250565b600062000746602083620006fd565b915062000753826200070e565b602082019050919050565b60006020820190508181036000830152620007798162000737565b9050919050565b7f4e487b7100000000000000000000000000000000000000000000000000000000600052602260045260246000fd5b60006002820490506001821680620007c857607f821691505b60208210811415620007df57620007de62000780565b5b50919050565b61511380620007f56000396000f3fe6080604052600436106102725760003560e01c80636352211e1161014f578063b88d4fde116100c1578063d5abeb011161007a578063d5abeb011461095c578063da3ef23f14610987578063e985e9c5146109b0578063edec5f27146109ed578063f2c4ce1e14610a16578063f2fde38b14610a3f57610272565b8063b88d4fde1461083a578063ba4e5c4914610863578063ba7d2c76146108a0578063c6682862146108cb578063c87b56dd146108f6578063d0eb26b01461093357610272565b80638da5cb5b116101135780638da5cb5b1461075d57806395d89b41146107885780639c70b512146107b3578063a0712d68146107de578063a22cb465146107fa578063a475b5dd1461082357610272565b80636352211e146106785780636c0360eb146106b557806370a08231146106e0578063715018a61461071d5780637f00c7a61461073457610272565b80632f745c59116101e8578063438b6300116101ac578063438b63001461055657806344a0d68a146105935780634f6ccce7146105bc57806351830227146105f957806355f804b3146106245780635c975abb1461064d57610272565b80632f745c59146104805780633af32abf146104bd5780633c952764146104fa5780633ccfd60b1461052357806342842e0e1461052d57610272565b8063095ea7b31161023a578063095ea7b31461037057806313faede61461039957806318160ddd146103c457806318cae269146103ef578063239c70ae1461042c57806323b872dd1461045757610272565b806301ffc9a71461027757806302329a29146102b457806306fdde03146102dd578063081812fc14610308578063081c8c4414610345575b600080fd5b34801561028357600080fd5b5061029e60048036038101906102999190613746565b610a68565b6040516102ab919061378e565b60405180910390f35b3480156102c057600080fd5b506102db60048036038101906102d691906137d5565b610ae2565b005b3480156102e957600080fd5b506102f2610b7b565b6040516102ff919061389b565b60405180910390f35b34801561031457600080fd5b5061032f600480360381019061032a91906138f3565b610c0d565b60405161033c9190613961565b60405180910390f35b34801561035157600080fd5b5061035a610c92565b604051610367919061389b565b60405180910390f35b34801561037c57600080fd5b50610397600480360381019061039291906139a8565b610d20565b005b3480156103a557600080fd5b506103ae610e38565b6040516103bb91906139f7565b60405180910390f35b3480156103d057600080fd5b506103d9610e3e565b6040516103e691906139f7565b60405180910390f35b3480156103fb57600080fd5b5061041660048036038101906104119190613a12565b610e4b565b60405161042391906139f7565b60405180910390f35b34801561043857600080fd5b50610441610e63565b60405161044e91906139f7565b60405180910390f35b34801561046357600080fd5b5061047e60048036038101906104799190613a3f565b610e69565b005b34801561048c57600080fd5b506104a760048036038101906104a291906139a8565b610ec9565b6040516104b491906139f7565b60405180910390f35b3480156104c957600080fd5b506104e460048036038101906104df9190613a12565b610f6e565b6040516104f1919061378e565b60405180910390f35b34801561050657600080fd5b50610521600480360381019061051c91906137d5565b61101d565b005b61052b6110b6565b005b34801561053957600080fd5b50610554600480360381019061054f9190613a3f565b611255565b005b34801561056257600080fd5b5061057d60048036038101906105789190613a12565b611275565b60405161058a9190613b50565b60405180910390f35b34801561059f57600080fd5b506105ba60048036038101906105b591906138f3565b611323565b005b3480156105c857600080fd5b506105e360048036038101906105de91906138f3565b6113a9565b6040516105f091906139f7565b60405180910390f35b34801561060557600080fd5b5061060e61141a565b60405161061b919061378e565b60405180910390f35b34801561063057600080fd5b5061064b60048036038101906106469190613ca7565b61142d565b005b34801561065957600080fd5b506106626114c3565b60405161066f919061378e565b60405180910390f35b34801561068457600080fd5b5061069f600480360381019061069a91906138f3565b6114d6565b6040516106ac9190613961565b60405180910390f35b3480156106c157600080fd5b506106ca611588565b6040516106d7919061389b565b60405180910390f35b3480156106ec57600080fd5b5061070760048036038101906107029190613a12565b611616565b60405161071491906139f7565b60405180910390f35b34801561072957600080fd5b506107326116ce565b005b34801561074057600080fd5b5061075b600480360381019061075691906138f3565b611756565b005b34801561076957600080fd5b506107726117dc565b60405161077f9190613961565b60405180910390f35b34801561079457600080fd5b5061079d611806565b6040516107aa919061389b565b60405180910390f35b3480156107bf57600080fd5b506107c8611898565b6040516107d5919061378e565b60405180910390f35b6107f860048036038101906107f391906138f3565b6118ab565b005b34801561080657600080fd5b50610821600480360381019061081c9190613cf0565b611bf4565b005b34801561082f57600080fd5b50610838611c0a565b005b34801561084657600080fd5b50610861600480360381019061085c9190613dd1565b611ca3565b005b34801561086f57600080fd5b5061088a600480360381019061088591906138f3565b611d05565b6040516108979190613961565b60405180910390f35b3480156108ac57600080fd5b506108b5611d44565b6040516108c291906139f7565b60405180910390f35b3480156108d757600080fd5b506108e0611d4a565b6040516108ed919061389b565b60405180910390f35b34801561090257600080fd5b5061091d600480360381019061091891906138f3565b611dd8565b60405161092a919061389b565b60405180910390f35b34801561093f57600080fd5b5061095a600480360381019061095591906138f3565b611f31565b005b34801561096857600080fd5b50610971611fb7565b60405161097e91906139f7565b60405180910390f35b34801561099357600080fd5b506109ae60048036038101906109a99190613ca7565b611fbd565b005b3480156109bc57600080fd5b506109d760048036038101906109d29190613e54565b612053565b6040516109e4919061378e565b60405180910390f35b3480156109f957600080fd5b50610a146004803603810190610a0f9190613ef4565b6120e7565b005b348015610a2257600080fd5b50610a3d6004803603810190610a389190613ca7565b612187565b005b348015610a4b57600080fd5b50610a666004803603810190610a619190613a12565b61221d565b005b60007f780e9d63000000000000000000000000000000000000000000000000000000007bffffffffffffffffffffffffffffffffffffffffffffffffffffffff1916827bffffffffffffffffffffffffffffffffffffffffffffffffffffffff19161480610adb5750610ada82612315565b5b9050919050565b610aea6123f7565b73ffffffffffffffffffffffffffffffffffffffff16610b086117dc565b73ffffffffffffffffffffffffffffffffffffffff1614610b5e576040517f08c379a0000000000000000000000000000000000000000000000000000000008152600401610b5590613f8d565b60405180910390fd5b80601260006101000a81548160ff02191690831515021790555050565b606060008054610b8a90613fdc565b80601f0160208091040260200160405190810160405280929190818152602001828054610bb690613fdc565b8015610c035780601f10610bd857610100808354040283529160200191610c03565b820191906000526020600020905b815481529060010190602001808311610be657829003601f168201915b5050505050905090565b6000610c18826123ff565b610c57576040517f08c379a0000000000000000000000000000000000000000000000000000000008152600401610c4e90614080565b60405180910390fd5b6004600083815260200190815260200160002060009054906101000a900473ffffffffffffffffffffffffffffffffffffffff169050919050565b600d8054610c9f90613fdc565b80601f0160208091040260200160405190810160405280929190818152602001828054610ccb90613fdc565b8015610d185780601f10610ced57610100808354040283529160200191610d18565b820191906000526020600020905b815481529060010190602001808311610cfb57829003601f168201915b505050505081565b6000610d2b826114d6565b90508073ffffffffffffffffffffffffffffffffffffffff168373ffffffffffffffffffffffffffffffffffffffff161415610d9c576040517f08c379a0000000000000000000000000000000000000000000000000000000008152600401610d9390614112565b60405180910390fd5b8073ffffffffffffffffffffffffffffffffffffffff16610dbb6123f7565b73ffffffffffffffffffffffffffffffffffffffff161480610dea5750610de981610de46123f7565b612053565b5b610e29576040517f08c379a0000000000000000000000000000000000000000000000000000000008152600401610e20906141a4565b60405180910390fd5b610e33838361246b565b505050565b600e5481565b6000600880549050905090565b60146020528060005260406000206000915090505481565b60105481565b610e7a610e746123f7565b82612524565b610eb9576040517f08c379a0000000000000000000000000000000000000000000000000000000008152600401610eb090614236565b60405180910390fd5b610ec4838383612602565b505050565b6000610ed483611616565b8210610f15576040517f08c379a0000000000000000000000000000000000000000000000000000000008152600401610f0c906142c8565b60405180910390fd5b600660008473ffffffffffffffffffffffffffffffffffffffff1673ffffffffffffffffffffffffffffffffffffffff168152602001908152602001600020600083815260200190815260200160002054905092915050565b600080600090505b601380549050811015611012578273ffffffffffffffffffffffffffffffffffffffff1660138281548110610fae57610fad6142e8565b5b9060005260206000200160009054906101000a900473ffffffffffffffffffffffffffffffffffffffff1673ffffffffffffffffffffffffffffffffffffffff161415610fff576001915050611018565b808061100a90614346565b915050610f76565b50600090505b919050565b6110256123f7565b73ffffffffffffffffffffffffffffffffffffffff166110436117dc565b73ffffffffffffffffffffffffffffffffffffffff1614611099576040517f08c379a000000000000000000000000000000000000000000000000000000000815260040161109090613f8d565b60405180910390fd5b80601260026101000a81548160ff02191690831515021790555050565b6110be6123f7565b73ffffffffffffffffffffffffffffffffffffffff166110dc6117dc565b73ffffffffffffffffffffffffffffffffffffffff1614611132576040517f08c379a000000000000000000000000000000000000000000000000000000000815260040161112990613f8d565b60405180910390fd5b600073943590a42c27d08e3744202c4ae5ed55c2de240d73ffffffffffffffffffffffffffffffffffffffff16606460054761116e919061438f565b6111789190614418565b6040516111849061447a565b60006040518083038185875af1925050503d80600081146111c1576040519150601f19603f3d011682016040523d82523d6000602084013e6111c6565b606091505b50509050806111d457600080fd5b60006111de6117dc565b73ffffffffffffffffffffffffffffffffffffffff16476040516112019061447a565b60006040518083038185875af1925050503d806000811461123e576040519150601f19603f3d011682016040523d82523d6000602084013e611243565b606091505b505090508061125157600080fd5b5050565b61127083838360405180602001604052806000815250611ca3565b505050565b6060600061128283611616565b905060008167ffffffffffffffff8111156112a05761129f613b7c565b5b6040519080825280602002602001820160405280156112ce5781602001602082028036833780820191505090505b50905060005b82811015611318576112e68582610ec9565b8282815181106112f9576112f86142e8565b5b602002602001018181525050808061131090614346565b9150506112d4565b508092505050919050565b61132b6123f7565b73ffffffffffffffffffffffffffffffffffffffff166113496117dc565b73ffffffffffffffffffffffffffffffffffffffff161461139f576040517f08c379a000000000000000000000000000000000000000000000000000000000815260040161139690613f8d565b60405180910390fd5b80600e8190555050565b60006113b3610e3e565b82106113f4576040517f08c379a00000000000000000000000000000000000000000000000000000000081526004016113eb90614501565b60405180910390fd5b60088281548110611408576114076142e8565b5b90600052602060002001549050919050565b601260019054906101000a900460ff1681565b6114356123f7565b73ffffffffffffffffffffffffffffffffffffffff166114536117dc565b73ffffffffffffffffffffffffffffffffffffffff16146114a9576040517f08c379a00000000000000000000000000000000000000000000000000000000081526004016114a090613f8d565b60405180910390fd5b80600b90805190602001906114bf929190613576565b5050565b601260009054906101000a900460ff1681565b6000806002600084815260200190815260200160002060009054906101000a900473ffffffffffffffffffffffffffffffffffffffff169050600073ffffffffffffffffffffffffffffffffffffffff168173ffffffffffffffffffffffffffffffffffffffff16141561157f576040517f08c379a000000000000000000000000000000000000000000000000000000000815260040161157690614593565b60405180910390fd5b80915050919050565b600b805461159590613fdc565b80601f01602080910402602001604051908101604052809291908181526020018280546115c190613fdc565b801561160e5780601f106115e35761010080835404028352916020019161160e565b820191906000526020600020905b8154815290600101906020018083116115f157829003601f168201915b505050505081565b60008073ffffffffffffffffffffffffffffffffffffffff168273ffffffffffffffffffffffffffffffffffffffff161415611687576040517f08c379a000000000000000000000000000000000000000000000000000000000815260040161167e90614625565b60405180910390fd5b600360008373ffffffffffffffffffffffffffffffffffffffff1673ffffffffffffffffffffffffffffffffffffffff168152602001908152602001600020549050919050565b6116d66123f7565b73ffffffffffffffffffffffffffffffffffffffff166116f46117dc565b73ffffffffffffffffffffffffffffffffffffffff161461174a576040517f08c379a000000000000000000000000000000000000000000000000000000000815260040161174190613f8d565b60405180910390fd5b6117546000612869565b565b61175e6123f7565b73ffffffffffffffffffffffffffffffffffffffff1661177c6117dc565b73ffffffffffffffffffffffffffffffffffffffff16146117d2576040517f08c379a00000000000000000000000000000000000000000000000000000000081526004016117c990613f8d565b60405180910390fd5b8060108190555050565b6000600a60009054906101000a900473ffffffffffffffffffffffffffffffffffffffff16905090565b60606001805461181590613fdc565b80601f016020809104026020016040519081016040528092919081815260200182805461184190613fdc565b801561188e5780601f106118635761010080835404028352916020019161188e565b820191906000526020600020905b81548152906001019060200180831161187157829003601f168201915b5050505050905090565b601260029054906101000a900460ff1681565b601260009054906101000a900460ff16156118fb576040517f08c379a00000000000000000000000000000000000000000000000000000000081526004016118f290614691565b60405180910390fd5b6000611905610e3e565b90506000821161194a576040517f08c379a0000000000000000000000000000000000000000000000000000000008152600401611941906146fd565b60405180910390fd5b60105482111561198f576040517f08c379a00000000000000000000000000000000000000000000000000000000081526004016119869061478f565b60405180910390fd5b600f54828261199e91906147af565b11156119df576040517f08c379a00000000000000000000000000000000000000000000000000000000081526004016119d690614851565b60405180910390fd5b6119e76117dc565b73ffffffffffffffffffffffffffffffffffffffff163373ffffffffffffffffffffffffffffffffffffffff1614611b645760011515601260029054906101000a900460ff1615151415611b1357611a3e33610f6e565b611a7d576040517f08c379a0000000000000000000000000000000000000000000000000000000008152600401611a74906148bd565b60405180910390fd5b6000601460003373ffffffffffffffffffffffffffffffffffffffff1673ffffffffffffffffffffffffffffffffffffffff1681526020019081526020016000205490506011548382611ad091906147af565b1115611b11576040517f08c379a0000000000000000000000000000000000000000000000000000000008152600401611b0890614929565b60405180910390fd5b505b81600e54611b21919061438f565b341015611b63576040517f08c379a0000000000000000000000000000000000000000000000000000000008152600401611b5a90614995565b60405180910390fd5b5b6000600190505b828111611bef57601460003373ffffffffffffffffffffffffffffffffffffffff1673ffffffffffffffffffffffffffffffffffffffff1681526020019081526020016000206000815480929190611bc290614346565b9190505550611bdc338284611bd791906147af565b61292f565b8080611be790614346565b915050611b6b565b505050565b611c06611bff6123f7565b838361294d565b5050565b611c126123f7565b73ffffffffffffffffffffffffffffffffffffffff16611c306117dc565b73ffffffffffffffffffffffffffffffffffffffff1614611c86576040517f08c379a0000000000000000000000000000000000000000000000000000000008152600401611c7d90613f8d565b60405180910390fd5b6001601260016101000a81548160ff021916908315150217905550565b611cb4611cae6123f7565b83612524565b611cf3576040517f08c379a0000000000000000000000000000000000000000000000000000000008152600401611cea90614236565b60405180910390fd5b611cff84848484612aba565b50505050565b60138181548110611d1557600080fd5b906000526020600020016000915054906101000a900473ffffffffffffffffffffffffffffffffffffffff1681565b60115481565b600c8054611d5790613fdc565b80601f0160208091040260200160405190810160405280929190818152602001828054611d8390613fdc565b8015611dd05780601f10611da557610100808354040283529160200191611dd0565b820191906000526020600020905b815481529060010190602001808311611db357829003601f168201915b505050505081565b6060611de3826123ff565b611e22576040517f08c379a0000000000000000000000000000000000000000000000000000000008152600401611e1990614a27565b60405180910390fd5b60001515601260019054906101000a900460ff1615151415611ed057600d8054611e4b90613fdc565b80601f0160208091040260200160405190810160405280929190818152602001828054611e7790613fdc565b8015611ec45780601f10611e9957610100808354040283529160200191611ec4565b820191906000526020600020905b815481529060010190602001808311611ea757829003601f168201915b50505050509050611f2c565b6000611eda612b16565b90506000815111611efa5760405180602001604052806000815250611f28565b80611f0484612ba8565b600c604051602001611f1893929190614b17565b6040516020818303038152906040525b9150505b919050565b611f396123f7565b73ffffffffffffffffffffffffffffffffffffffff16611f576117dc565b73ffffffffffffffffffffffffffffffffffffffff1614611fad576040517f08c379a0000000000000000000000000000000000000000000000000000000008152600401611fa490613f8d565b60405180910390fd5b8060118190555050565b600f5481565b611fc56123f7565b73ffffffffffffffffffffffffffffffffffffffff16611fe36117dc565b73ffffffffffffffffffffffffffffffffffffffff1614612039576040517f08c379a000000000000000000000000000000000000000000000000000000000815260040161203090613f8d565b60405180910390fd5b80600c908051906020019061204f929190613576565b5050565b6000600560008473ffffffffffffffffffffffffffffffffffffffff1673ffffffffffffffffffffffffffffffffffffffff16815260200190815260200160002060008373ffffffffffffffffffffffffffffffffffffffff1673ffffffffffffffffffffffffffffffffffffffff16815260200190815260200160002060009054906101000a900460ff16905092915050565b6120ef6123f7565b73ffffffffffffffffffffffffffffffffffffffff1661210d6117dc565b73ffffffffffffffffffffffffffffffffffffffff1614612163576040517f08c379a000000000000000000000000000000000000000000000000000000000815260040161215a90613f8d565b60405180910390fd5b6013600061217191906135fc565b81816013919061218292919061361d565b505050565b61218f6123f7565b73ffffffffffffffffffffffffffffffffffffffff166121ad6117dc565b73ffffffffffffffffffffffffffffffffffffffff1614612203576040517f08c379a00000000000000000000000000000000000000000000000000000000081526004016121fa90613f8d565b60405180910390fd5b80600d9080519060200190612219929190613576565b5050565b6122256123f7565b73ffffffffffffffffffffffffffffffffffffffff166122436117dc565b73ffffffffffffffffffffffffffffffffffffffff1614612299576040517f08c379a000000000000000000000000000000000000000000000000000000000815260040161229090613f8d565b60405180910390fd5b600073ffffffffffffffffffffffffffffffffffffffff168173ffffffffffffffffffffffffffffffffffffffff161415612309576040517f08c379a000000000000000000000000000000000000000000000000000000000815260040161230090614bba565b60405180910390fd5b61231281612869565b50565b60007f80ac58cd000000000000000000000000000000000000000000000000000000007bffffffffffffffffffffffffffffffffffffffffffffffffffffffff1916827bffffffffffffffffffffffffffffffffffffffffffffffffffffffff191614806123e057507f5b5e139f000000000000000000000000000000000000000000000000000000007bffffffffffffffffffffffffffffffffffffffffffffffffffffffff1916827bffffffffffffffffffffffffffffffffffffffffffffffffffffffff1916145b806123f057506123ef82612d09565b5b9050919050565b600033905090565b60008073ffffffffffffffffffffffffffffffffffffffff166002600084815260200190815260200160002060009054906101000a900473ffffffffffffffffffffffffffffffffffffffff1673ffffffffffffffffffffffffffffffffffffffff1614159050919050565b816004600083815260200190815260200160002060006101000a81548173ffffffffffffffffffffffffffffffffffffffff021916908373ffffffffffffffffffffffffffffffffffffffff160217905550808273ffffffffffffffffffffffffffffffffffffffff166124de836114d6565b73ffffffffffffffffffffffffffffffffffffffff167f8c5be1e5ebec7d5bd14f71427d1e84f3dd0314c0f7b2291e5b200ac8c7c3b92560405160405180910390a45050565b600061252f826123ff565b61256e576040517f08c379a000000000000000000000000000000000000000000000000000000000815260040161256590614c4c565b60405180910390fd5b6000612579836114d6565b90508073ffffffffffffffffffffffffffffffffffffffff168473ffffffffffffffffffffffffffffffffffffffff1614806125e857508373ffffffffffffffffffffffffffffffffffffffff166125d084610c0d565b73ffffffffffffffffffffffffffffffffffffffff16145b806125f957506125f88185612053565b5b91505092915050565b8273ffffffffffffffffffffffffffffffffffffffff16612622826114d6565b73ffffffffffffffffffffffffffffffffffffffff1614612678576040517f08c379a000000000000000000000000000000000000000000000000000000000815260040161266f90614cde565b60405180910390fd5b600073ffffffffffffffffffffffffffffffffffffffff168273ffffffffffffffffffffffffffffffffffffffff1614156126e8576040517f08c379a00000000000000000000000000000000000000000000000000000000081526004016126df90614d70565b60405180910390fd5b6126f3838383612d73565b6126fe60008261246b565b6001600360008573ffffffffffffffffffffffffffffffffffffffff1673ffffffffffffffffffffffffffffffffffffffff168152602001908152602001600020600082825461274e9190614d90565b925050819055506001600360008473ffffffffffffffffffffffffffffffffffffffff1673ffffffffffffffffffffffffffffffffffffffff16815260200190815260200160002060008282546127a591906147af565b92505081905550816002600083815260200190815260200160002060006101000a81548173ffffffffffffffffffffffffffffffffffffffff021916908373ffffffffffffffffffffffffffffffffffffffff160217905550808273ffffffffffffffffffffffffffffffffffffffff168473ffffffffffffffffffffffffffffffffffffffff167fddf252ad1be2c89b69c2b068fc378daa952ba7f163c4a11628f55a4df523b3ef60405160405180910390a4612864838383612e87565b505050565b6000600a60009054906101000a900473ffffffffffffffffffffffffffffffffffffffff16905081600a60006101000a81548173ffffffffffffffffffffffffffffffffffffffff021916908373ffffffffffffffffffffffffffffffffffffffff1602179055508173ffffffffffffffffffffffffffffffffffffffff168173ffffffffffffffffffffffffffffffffffffffff167f8be0079c531659141344cd1fd0a4f28419497f9722a3daafe3b4186f6b6457e060405160405180910390a35050565b612949828260405180602001604052806000815250612e8c565b5050565b8173ffffffffffffffffffffffffffffffffffffffff168373ffffffffffffffffffffffffffffffffffffffff1614156129bc576040517f08c379a00000000000000000000000000000000000000000000000000000000081526004016129b390614e10565b60405180910390fd5b80600560008573ffffffffffffffffffffffffffffffffffffffff1673ffffffffffffffffffffffffffffffffffffffff16815260200190815260200160002060008473ffffffffffffffffffffffffffffffffffffffff1673ffffffffffffffffffffffffffffffffffffffff16815260200190815260200160002060006101000a81548160ff0219169083151502179055508173ffffffffffffffffffffffffffffffffffffffff168373ffffffffffffffffffffffffffffffffffffffff167f17307eab39ab6107e8899845ad3d59bd9653f200f220920489ca2b5937696c3183604051612aad919061378e565b60405180910390a3505050565b612ac5848484612602565b612ad184848484612ee7565b612b10576040517f08c379a0000000000000000000000000000000000000000000000000000000008152600401612b0790614ea2565b60405180910390fd5b50505050565b6060600b8054612b2590613fdc565b80601f0160208091040260200160405190810160405280929190818152602001828054612b5190613fdc565b8015612b9e5780601f10612b7357610100808354040283529160200191612b9e565b820191906000526020600020905b815481529060010190602001808311612b8157829003601f168201915b5050505050905090565b60606000821415612bf0576040518060400160405280600181526020017f30000000000000000000000000000000000000000000000000000000000000008152509050612d04565b600082905060005b60008214612c22578080612c0b90614346565b915050600a82612c1b9190614418565b9150612bf8565b60008167ffffffffffffffff811115612c3e57612c3d613b7c565b5b6040519080825280601f01601f191660200182016040528015612c705781602001600182028036833780820191505090505b5090505b60008514612cfd57600182612c899190614d90565b9150600a85612c989190614ec2565b6030612ca491906147af565b60f81b818381518110612cba57612cb96142e8565b5b60200101907effffffffffffffffffffffffffffffffffffffffffffffffffffffffffffff1916908160001a905350600a85612cf69190614418565b9450612c74565b8093505050505b919050565b60007f01ffc9a7000000000000000000000000000000000000000000000000000000007bffffffffffffffffffffffffffffffffffffffffffffffffffffffff1916827bffffffffffffffffffffffffffffffffffffffffffffffffffffffff1916149050919050565b612d7e83838361307e565b600073ffffffffffffffffffffffffffffffffffffffff168373ffffffffffffffffffffffffffffffffffffffff161415612dc157612dbc81613083565b612e00565b8173ffffffffffffffffffffffffffffffffffffffff168373ffffffffffffffffffffffffffffffffffffffff1614612dff57612dfe83826130cc565b5b5b600073ffffffffffffffffffffffffffffffffffffffff168273ffffffffffffffffffffffffffffffffffffffff161415612e4357612e3e81613239565b612e82565b8273ffffffffffffffffffffffffffffffffffffffff168273ffffffffffffffffffffffffffffffffffffffff1614612e8157612e80828261330a565b5b5b505050565b505050565b612e968383613389565b612ea36000848484612ee7565b612ee2576040517f08c379a0000000000000000000000000000000000000000000000000000000008152600401612ed990614ea2565b60405180910390fd5b505050565b6000612f088473ffffffffffffffffffffffffffffffffffffffff16613563565b15613071578373ffffffffffffffffffffffffffffffffffffffff1663150b7a02612f316123f7565b8786866040518563ffffffff1660e01b8152600401612f539493929190614f48565b602060405180830381600087803b158015612f6d57600080fd5b505af1925050508015612f9e57506040513d601f19601f82011682018060405250810190612f9b9190614fa9565b60015b613021573d8060008114612fce576040519150601f19603f3d011682016040523d82523d6000602084013e612fd3565b606091505b50600081511415613019576040517f08c379a000000000000000000000000000000000000000000000000000000000815260040161301090614ea2565b60405180910390fd5b805181602001fd5b63150b7a0260e01b7bffffffffffffffffffffffffffffffffffffffffffffffffffffffff1916817bffffffffffffffffffffffffffffffffffffffffffffffffffffffff191614915050613076565b600190505b949350505050565b505050565b6008805490506009600083815260200190815260200160002081905550600881908060018154018082558091505060019003906000526020600020016000909190919091505550565b600060016130d984611616565b6130e39190614d90565b90506000600760008481526020019081526020016000205490508181146131c8576000600660008673ffffffffffffffffffffffffffffffffffffffff1673ffffffffffffffffffffffffffffffffffffffff168152602001908152602001600020600084815260200190815260200160002054905080600660008773ffffffffffffffffffffffffffffffffffffffff1673ffffffffffffffffffffffffffffffffffffffff168152602001908152602001600020600084815260200190815260200160002081905550816007600083815260200190815260200160002081905550505b6007600084815260200190815260200160002060009055600660008573ffffffffffffffffffffffffffffffffffffffff1673ffffffffffffffffffffffffffffffffffffffff16815260200190815260200160002060008381526020019081526020016000206000905550505050565b6000600160088054905061324d9190614d90565b905060006009600084815260200190815260200160002054905060006008838154811061327d5761327c6142e8565b5b90600052602060002001549050806008838154811061329f5761329e6142e8565b5b9060005260206000200181905550816009600083815260200190815260200160002081905550600960008581526020019081526020016000206000905560088054806132ee576132ed614fd6565b5b6001900381819060005260206000200160009055905550505050565b600061331583611616565b905081600660008573ffffffffffffffffffffffffffffffffffffffff1673ffffffffffffffffffffffffffffffffffffffff168152602001908152602001600020600083815260200190815260200160002081905550806007600084815260200190815260200160002081905550505050565b600073ffffffffffffffffffffffffffffffffffffffff168273ffffffffffffffffffffffffffffffffffffffff1614156133f9576040517f08c379a00000000000000000000000000000000000000000000000000000000081526004016133f090615051565b60405180910390fd5b613402816123ff565b15613442576040517f08c379a0000000000000000000000000000000000000000000000000000000008152600401613439906150bd565b60405180910390fd5b61344e60008383612d73565b6001600360008473ffffffffffffffffffffffffffffffffffffffff1673ffffffffffffffffffffffffffffffffffffffff168152602001908152602001600020600082825461349e91906147af565b92505081905550816002600083815260200190815260200160002060006101000a81548173ffffffffffffffffffffffffffffffffffffffff021916908373ffffffffffffffffffffffffffffffffffffffff160217905550808273ffffffffffffffffffffffffffffffffffffffff16600073ffffffffffffffffffffffffffffffffffffffff167fddf252ad1be2c89b69c2b068fc378daa952ba7f163c4a11628f55a4df523b3ef60405160405180910390a461355f60008383612e87565b5050565b600080823b905060008111915050919050565b82805461358290613fdc565b90600052602060002090601f0160209004810192826135a457600085556135eb565b82601f106135bd57805160ff19168380011785556135eb565b828001600101855582156135eb579182015b828111156135ea5782518255916020019190600101906135cf565b5b5090506135f891906136bd565b5090565b508054600082559060005260206000209081019061361a91906136bd565b50565b8280548282559060005260206000209081019282156136ac579160200282015b828111156136ab57823573ffffffffffffffffffffffffffffffffffffffff168260006101000a81548173ffffffffffffffffffffffffffffffffffffffff021916908373ffffffffffffffffffffffffffffffffffffffff1602179055509160200191906001019061363d565b5b5090506136b991906136bd565b5090565b5b808211156136d65760008160009055506001016136be565b5090565b6000604051905090565b600080fd5b600080fd5b60007fffffffff0000000000000000000000000000000000000000000000000000000082169050919050565b613723816136ee565b811461372e57600080fd5b50565b6000813590506137408161371a565b92915050565b60006020828403121561375c5761375b6136e4565b5b600061376a84828501613731565b91505092915050565b60008115159050919050565b61378881613773565b82525050565b60006020820190506137a3600083018461377f565b92915050565b6137b281613773565b81146137bd57600080fd5b50565b6000813590506137cf816137a9565b92915050565b6000602082840312156137eb576137ea6136e4565b5b60006137f9848285016137c0565b91505092915050565b600081519050919050565b600082825260208201905092915050565b60005b8381101561383c578082015181840152602081019050613821565b8381111561384b576000848401525b50505050565b6000601f19601f8301169050919050565b600061386d82613802565b613877818561380d565b935061388781856020860161381e565b61389081613851565b840191505092915050565b600060208201905081810360008301526138b58184613862565b905092915050565b6000819050919050565b6138d0816138bd565b81146138db57600080fd5b50565b6000813590506138ed816138c7565b92915050565b600060208284031215613909576139086136e4565b5b6000613917848285016138de565b91505092915050565b600073ffffffffffffffffffffffffffffffffffffffff82169050919050565b600061394b82613920565b9050919050565b61395b81613940565b82525050565b60006020820190506139766000830184613952565b92915050565b61398581613940565b811461399057600080fd5b50565b6000813590506139a28161397c565b92915050565b600080604083850312156139bf576139be6136e4565b5b60006139cd85828601613993565b92505060206139de858286016138de565b9150509250929050565b6139f1816138bd565b82525050565b6000602082019050613a0c60008301846139e8565b92915050565b600060208284031215613a2857613a276136e4565b5b6000613a3684828501613993565b91505092915050565b600080600060608486031215613a5857613a576136e4565b5b6000613a6686828701613993565b9350506020613a7786828701613993565b9250506040613a88868287016138de565b9150509250925092565b600081519050919050565b600082825260208201905092915050565b6000819050602082019050919050565b613ac7816138bd565b82525050565b6000613ad98383613abe565b60208301905092915050565b6000602082019050919050565b6000613afd82613a92565b613b078185613a9d565b9350613b1283613aae565b8060005b83811015613b43578151613b2a8882613acd565b9750613b3583613ae5565b925050600181019050613b16565b5085935050505092915050565b60006020820190508181036000830152613b6a8184613af2565b905092915050565b600080fd5b600080fd5b7f4e487b7100000000000000000000000000000000000000000000000000000000600052604160045260246000fd5b613bb482613851565b810181811067ffffffffffffffff82111715613bd357613bd2613b7c565b5b80604052505050565b6000613be66136da565b9050613bf28282613bab565b919050565b600067ffffffffffffffff821115613c1257613c11613b7c565b5b613c1b82613851565b9050602081019050919050565b82818337600083830152505050565b6000613c4a613c4584613bf7565b613bdc565b905082815260208101848484011115613c6657613c65613b77565b5b613c71848285613c28565b509392505050565b600082601f830112613c8e57613c8d613b72565b5b8135613c9e848260208601613c37565b91505092915050565b600060208284031215613cbd57613cbc6136e4565b5b600082013567ffffffffffffffff811115613cdb57613cda6136e9565b5b613ce784828501613c79565b91505092915050565b60008060408385031215613d0757613d066136e4565b5b6000613d1585828601613993565b9250506020613d26858286016137c0565b9150509250929050565b600067ffffffffffffffff821115613d4b57613d4a613b7c565b5b613d5482613851565b9050602081019050919050565b6000613d74613d6f84613d30565b613bdc565b905082815260208101848484011115613d9057613d8f613b77565b5b613d9b848285613c28565b509392505050565b600082601f830112613db857613db7613b72565b5b8135613dc8848260208601613d61565b91505092915050565b60008060008060808587031215613deb57613dea6136e4565b5b6000613df987828801613993565b9450506020613e0a87828801613993565b9350506040613e1b878288016138de565b925050606085013567ffffffffffffffff811115613e3c57613e3b6136e9565b5b613e4887828801613da3565b91505092959194509250565b60008060408385031215613e6b57613e6a6136e4565b5b6000613e7985828601613993565b9250506020613e8a85828601613993565b9150509250929050565b600080fd5b600080fd5b60008083601f840112613eb457613eb3613b72565b5b8235905067ffffffffffffffff811115613ed157613ed0613e94565b5b602083019150836020820283011115613eed57613eec613e99565b5b9250929050565b60008060208385031215613f0b57613f0a6136e4565b5b600083013567ffffffffffffffff811115613f2957613f286136e9565b5b613f3585828601613e9e565b92509250509250929050565b7f4f776e61626c653a2063616c6c6572206973206e6f7420746865206f776e6572600082015250565b6000613f7760208361380d565b9150613f8282613f41565b602082019050919050565b60006020820190508181036000830152613fa681613f6a565b9050919050565b7f4e487b7100000000000000000000000000000000000000000000000000000000600052602260045260246000fd5b60006002820490506001821680613ff457607f821691505b6020821081141561400857614007613fad565b5b50919050565b7f4552433732313a20617070726f76656420717565727920666f72206e6f6e657860008201527f697374656e7420746f6b656e0000000000000000000000000000000000000000602082015250565b600061406a602c8361380d565b91506140758261400e565b604082019050919050565b600060208201905081810360008301526140998161405d565b9050919050565b7f4552433732313a20617070726f76616c20746f2063757272656e74206f776e6560008201527f7200000000000000000000000000000000000000000000000000000000000000602082015250565b60006140fc60218361380d565b9150614107826140a0565b604082019050919050565b6000602082019050818103600083015261412b816140ef565b9050919050565b7f4552433732313a20617070726f76652063616c6c6572206973206e6f74206f7760008201527f6e6572206e6f7220617070726f76656420666f7220616c6c0000000000000000602082015250565b600061418e60388361380d565b915061419982614132565b604082019050919050565b600060208201905081810360008301526141bd81614181565b9050919050565b7f4552433732313a207472616e736665722063616c6c6572206973206e6f74206f60008201527f776e6572206e6f7220617070726f766564000000000000000000000000000000602082015250565b600061422060318361380d565b915061422b826141c4565b604082019050919050565b6000602082019050818103600083015261424f81614213565b9050919050565b7f455243373231456e756d657261626c653a206f776e657220696e646578206f7560008201527f74206f6620626f756e6473000000000000000000000000000000000000000000602082015250565b60006142b2602b8361380d565b91506142bd82614256565b604082019050919050565b600060208201905081810360008301526142e1816142a5565b9050919050565b7f4e487b7100000000000000000000000000000000000000000000000000000000600052603260045260246000fd5b7f4e487b7100000000000000000000000000000000000000000000000000000000600052601160045260246000fd5b6000614351826138bd565b91507fffffffffffffffffffffffffffffffffffffffffffffffffffffffffffffffff82141561438457614383614317565b5b600182019050919050565b600061439a826138bd565b91506143a5836138bd565b9250817fffffffffffffffffffffffffffffffffffffffffffffffffffffffffffffffff04831182151516156143de576143dd614317565b5b828202905092915050565b7f4e487b7100000000000000000000000000000000000000000000000000000000600052601260045260246000fd5b6000614423826138bd565b915061442e836138bd565b92508261443e5761443d6143e9565b5b828204905092915050565b600081905092915050565b50565b6000614464600083614449565b915061446f82614454565b600082019050919050565b600061448582614457565b9150819050919050565b7f455243373231456e756d657261626c653a20676c6f62616c20696e646578206f60008201527f7574206f6620626f756e64730000000000000000000000000000000000000000602082015250565b60006144eb602c8361380d565b91506144f68261448f565b604082019050919050565b6000602082019050818103600083015261451a816144de565b9050919050565b7f4552433732313a206f776e657220717565727920666f72206e6f6e657869737460008201527f656e7420746f6b656e0000000000000000000000000000000000000000000000602082015250565b600061457d60298361380d565b915061458882614521565b604082019050919050565b600060208201905081810360008301526145ac81614570565b9050919050565b7f4552433732313a2062616c616e636520717565727920666f7220746865207a6560008201527f726f206164647265737300000000000000000000000000000000000000000000602082015250565b600061460f602a8361380d565b915061461a826145b3565b604082019050919050565b6000602082019050818103600083015261463e81614602565b9050919050565b7f74686520636f6e74726163742069732070617573656400000000000000000000600082015250565b600061467b60168361380d565b915061468682614645565b602082019050919050565b600060208201905081810360008301526146aa8161466e565b9050919050565b7f6e65656420746f206d696e74206174206c656173742031204e46540000000000600082015250565b60006146e7601b8361380d565b91506146f2826146b1565b602082019050919050565b60006020820190508181036000830152614716816146da565b9050919050565b7f6d6178206d696e7420616d6f756e74207065722073657373696f6e206578636560008201527f6564656400000000000000000000000000000000000000000000000000000000602082015250565b600061477960248361380d565b91506147848261471d565b604082019050919050565b600060208201905081810360008301526147a88161476c565b9050919050565b60006147ba826138bd565b91506147c5836138bd565b9250827fffffffffffffffffffffffffffffffffffffffffffffffffffffffffffffffff038211156147fa576147f9614317565b5b828201905092915050565b7f6d6178204e4654206c696d697420657863656564656400000000000000000000600082015250565b600061483b60168361380d565b915061484682614805565b602082019050919050565b6000602082019050818103600083015261486a8161482e565b9050919050565b7f75736572206973206e6f742077686974656c6973746564000000000000000000600082015250565b60006148a760178361380d565b91506148b282614871565b602082019050919050565b600060208201905081810360008301526148d68161489a565b9050919050565b7f6d6178204e465420706572206164647265737320657863656564656400000000600082015250565b6000614913601c8361380d565b915061491e826148dd565b602082019050919050565b6000602082019050818103600083015261494281614906565b9050919050565b7f696e73756666696369656e742066756e64730000000000000000000000000000600082015250565b600061497f60128361380d565b915061498a82614949565b602082019050919050565b600060208201905081810360008301526149ae81614972565b9050919050565b7f4552433732314d657461646174613a2055524920717565727920666f72206e6f60008201527f6e6578697374656e7420746f6b656e0000000000000000000000000000000000602082015250565b6000614a11602f8361380d565b9150614a1c826149b5565b604082019050919050565b60006020820190508181036000830152614a4081614a04565b9050919050565b600081905092915050565b6000614a5d82613802565b614a678185614a47565b9350614a7781856020860161381e565b80840191505092915050565b60008190508160005260206000209050919050565b60008154614aa581613fdc565b614aaf8186614a47565b94506001821660008114614aca5760018114614adb57614b0e565b60ff19831686528186019350614b0e565b614ae485614a83565b60005b83811015614b0657815481890152600182019150602081019050614ae7565b838801955050505b50505092915050565b6000614b238286614a52565b9150614b2f8285614a52565b9150614b3b8284614a98565b9150819050949350505050565b7f4f776e61626c653a206e6577206f776e657220697320746865207a65726f206160008201527f6464726573730000000000000000000000000000000000000000000000000000602082015250565b6000614ba460268361380d565b9150614baf82614b48565b604082019050919050565b60006020820190508181036000830152614bd381614b97565b9050919050565b7f4552433732313a206f70657261746f7220717565727920666f72206e6f6e657860008201527f697374656e7420746f6b656e0000000000000000000000000000000000000000602082015250565b6000614c36602c8361380d565b9150614c4182614bda565b604082019050919050565b60006020820190508181036000830152614c6581614c29565b9050919050565b7f4552433732313a207472616e736665722066726f6d20696e636f72726563742060008201527f6f776e6572000000000000000000000000000000000000000000000000000000602082015250565b6000614cc860258361380d565b9150614cd382614c6c565b604082019050919050565b60006020820190508181036000830152614cf781614cbb565b9050919050565b7f4552433732313a207472616e7366657220746f20746865207a65726f2061646460008201527f7265737300000000000000000000000000000000000000000000000000000000602082015250565b6000614d5a60248361380d565b9150614d6582614cfe565b604082019050919050565b60006020820190508181036000830152614d8981614d4d565b9050919050565b6000614d9b826138bd565b9150614da6836138bd565b925082821015614db957614db8614317565b5b828203905092915050565b7f4552433732313a20617070726f766520746f2063616c6c657200000000000000600082015250565b6000614dfa60198361380d565b9150614e0582614dc4565b602082019050919050565b60006020820190508181036000830152614e2981614ded565b9050919050565b7f4552433732313a207472616e7366657220746f206e6f6e20455243373231526560008201527f63656976657220696d706c656d656e7465720000000000000000000000000000602082015250565b6000614e8c60328361380d565b9150614e9782614e30565b604082019050919050565b60006020820190508181036000830152614ebb81614e7f565b9050919050565b6000614ecd826138bd565b9150614ed8836138bd565b925082614ee857614ee76143e9565b5b828206905092915050565b600081519050919050565b600082825260208201905092915050565b6000614f1a82614ef3565b614f248185614efe565b9350614f3481856020860161381e565b614f3d81613851565b840191505092915050565b6000608082019050614f5d6000830187613952565b614f6a6020830186613952565b614f7760408301856139e8565b8181036060830152614f898184614f0f565b905095945050505050565b600081519050614fa38161371a565b92915050565b600060208284031215614fbf57614fbe6136e4565b5b6000614fcd84828501614f94565b91505092915050565b7f4e487b7100000000000000000000000000000000000000000000000000000000600052603160045260246000fd5b7f4552433732313a206d696e7420746f20746865207a65726f2061646472657373600082015250565b600061503b60208361380d565b915061504682615005565b602082019050919050565b6000602082019050818103600083015261506a8161502e565b9050919050565b7f4552433732313a20746f6b656e20616c7265616479206d696e74656400000000600082015250565b60006150a7601c8361380d565b91506150b282615071565b602082019050919050565b600060208201905081810360008301526150d68161509a565b905091905056fea2646970667358221220d7a81dfbe6328a629df0323ec851cfc4e1aeb4f6806389156f41fee35e7d4a5b64736f6c63430008090033",
  "immutableReferences": {},
  "source": "// SPDX-License-Identifier: MIT\r\npragma solidity ^0.8.0;\r\n\r\nimport \"./token/ERC721/extensions/ERC721Enumerable.sol\";\r\nimport \"./access/Ownable.sol\";\r\n\r\ncontract ChordusArena is ERC721Enumerable, Ownable{\r\n  using Strings for uint256;\r\n\r\n  string public baseURI;\r\n  string public baseExtension = \".json\";\r\n  string public notRevealedUri;\r\n  uint256 public cost = 1 ether;\r\n  uint256 public maxSupply = 10000;\r\n  uint256 public maxMintAmount = 20;\r\n  uint256 public nftPerAddressLimit = 3;\r\n  bool public paused = false;\r\n  bool public revealed = false;\r\n  bool public onlyWhitelisted = true;\r\n  address[] public whitelistedAddresses;\r\n  mapping(address => uint256) public addressMintedBalance;\r\n\r\n  constructor(\r\n    string memory _name,\r\n    string memory _symbol,\r\n    string memory _initBaseURI,\r\n    string memory _initNotRevealedUri\r\n  ) ERC721(_name, _symbol) {\r\n    setBaseURI(_initBaseURI);\r\n    setNotRevealedURI(_initNotRevealedUri);\r\n  }\r\n\r\n  // internal\r\n  function _baseURI() internal view virtual override returns (string memory) {\r\n    return baseURI;\r\n  }\r\n\r\n  // public\r\n  function mint(uint256 _mintAmount) public payable {\r\n    require(!paused, \"the contract is paused\");\r\n    uint256 supply = totalSupply();\r\n    require(_mintAmount > 0, \"need to mint at least 1 NFT\");\r\n    require(_mintAmount <= maxMintAmount, \"max mint amount per session exceeded\");\r\n    require(supply + _mintAmount <= maxSupply, \"max NFT limit exceeded\");\r\n\r\n    if (msg.sender != owner()) {\r\n        if(onlyWhitelisted == true) {\r\n            require(isWhitelisted(msg.sender), \"user is not whitelisted\");\r\n            uint256 ownerMintedCount = addressMintedBalance[msg.sender];\r\n            require(ownerMintedCount + _mintAmount <= nftPerAddressLimit, \"max NFT per address exceeded\");\r\n        }\r\n        require(msg.value >= cost * _mintAmount, \"insufficient funds\");\r\n    }\r\n\r\n    for (uint256 i = 1; i <= _mintAmount; i++) {\r\n      addressMintedBalance[msg.sender]++;\r\n      _safeMint(msg.sender, supply + i);\r\n    }\r\n  }\r\n  \r\n  function isWhitelisted(address _user) public view returns (bool) {\r\n    for (uint i = 0; i < whitelistedAddresses.length; i++) {\r\n      if (whitelistedAddresses[i] == _user) {\r\n          return true;\r\n      }\r\n    }\r\n    return false;\r\n  }\r\n\r\n  function walletOfOwner(address _owner)\r\n    public\r\n    view\r\n    returns (uint256[] memory)\r\n  {\r\n    uint256 ownerTokenCount = balanceOf(_owner);\r\n    uint256[] memory tokenIds = new uint256[](ownerTokenCount);\r\n    for (uint256 i; i < ownerTokenCount; i++) {\r\n      tokenIds[i] = tokenOfOwnerByIndex(_owner, i);\r\n    }\r\n    return tokenIds;\r\n  }\r\n\r\n  function tokenURI(uint256 tokenId)\r\n    public\r\n    view\r\n    virtual\r\n    override\r\n    returns (string memory)\r\n  {\r\n    require(\r\n      _exists(tokenId),\r\n      \"ERC721Metadata: URI query for nonexistent token\"\r\n    );\r\n    \r\n    if(revealed == false) {\r\n        return notRevealedUri;\r\n    }\r\n\r\n    string memory currentBaseURI = _baseURI();\r\n    return bytes(currentBaseURI).length > 0\r\n        ? string(abi.encodePacked(currentBaseURI, tokenId.toString(), baseExtension))\r\n        : \"\";\r\n  }\r\n\r\n  //only owner\r\n  function reveal() public onlyOwner {\r\n      revealed = true;\r\n  }\r\n  \r\n  function setNftPerAddressLimit(uint256 _limit) public onlyOwner {\r\n    nftPerAddressLimit = _limit;\r\n  }\r\n  \r\n  function setCost(uint256 _newCost) public onlyOwner {\r\n    cost = _newCost;\r\n  }\r\n\r\n  function setmaxMintAmount(uint256 _newmaxMintAmount) public onlyOwner {\r\n    maxMintAmount = _newmaxMintAmount;\r\n  }\r\n\r\n  function setBaseURI(string memory _newBaseURI) public onlyOwner {\r\n    baseURI = _newBaseURI;\r\n  }\r\n\r\n  function setBaseExtension(string memory _newBaseExtension) public onlyOwner {\r\n    baseExtension = _newBaseExtension;\r\n  }\r\n  \r\n  function setNotRevealedURI(string memory _notRevealedURI) public onlyOwner {\r\n    notRevealedUri = _notRevealedURI;\r\n  }\r\n\r\n  function pause(bool _state) public onlyOwner {\r\n    paused = _state;\r\n  }\r\n  \r\n  function setOnlyWhitelisted(bool _state) public onlyOwner {\r\n    onlyWhitelisted = _state;\r\n  }\r\n  \r\n  function whitelistUsers(address[] calldata _users) public onlyOwner {\r\n    delete whitelistedAddresses;\r\n    whitelistedAddresses = _users;\r\n  }\r\n \r\n  function withdraw() public payable onlyOwner {\r\n    // This will pay HashLips 5% of the initial sale.\r\n    // You can remove this if you want, or keep it in to support HashLips and his channel.\r\n    // =============================================================================\r\n    (bool hs, ) = payable(0x943590A42C27D08e3744202c4Ae5eD55c2dE240D).call{value: address(this).balance * 5 / 100}(\"\");\r\n    require(hs);\r\n    // =============================================================================\r\n    \r\n    // This will payout the owner 95% of the contract balance.\r\n    // Do not remove this otherwise you will not be able to withdraw the funds.\r\n    // =============================================================================\r\n    (bool os, ) = payable(owner()).call{value: address(this).balance}(\"\");\r\n    require(os);\r\n    // =============================================================================\r\n  }\r\n}\r\n",
  "sourcePath": "D:\\OneDrive\\BlockChain\\workspace\\chordusarenacontract\\contracts\\ChordusArena.sol",
  "compiler": {
    "name": "solc",
    "version": "0.8.9+commit.e5eed63a.Emscripten.clang"
  },
  "schemaVersion": "3.4.3",
  "updatedAt": "2021-12-13T02:48:33.361Z",
  "networkType": "ethereum",
  "devdoc": {
    "kind": "dev",
    "methods": {
      "approve(address,uint256)": {
        "details": "See {IERC721-approve}."
      },
      "balanceOf(address)": {
        "details": "See {IERC721-balanceOf}."
      },
      "getApproved(uint256)": {
        "details": "See {IERC721-getApproved}."
      },
      "isApprovedForAll(address,address)": {
        "details": "See {IERC721-isApprovedForAll}."
      },
      "name()": {
        "details": "See {IERC721Metadata-name}."
      },
      "owner()": {
        "details": "Returns the address of the current owner."
      },
      "ownerOf(uint256)": {
        "details": "See {IERC721-ownerOf}."
      },
      "renounceOwnership()": {
        "details": "Leaves the contract without owner. It will not be possible to call `onlyOwner` functions anymore. Can only be called by the current owner. NOTE: Renouncing ownership will leave the contract without an owner, thereby removing any functionality that is only available to the owner."
      },
      "safeTransferFrom(address,address,uint256)": {
        "details": "See {IERC721-safeTransferFrom}."
      },
      "safeTransferFrom(address,address,uint256,bytes)": {
        "details": "See {IERC721-safeTransferFrom}."
      },
      "setApprovalForAll(address,bool)": {
        "details": "See {IERC721-setApprovalForAll}."
      },
      "supportsInterface(bytes4)": {
        "details": "See {IERC165-supportsInterface}."
      },
      "symbol()": {
        "details": "See {IERC721Metadata-symbol}."
      },
      "tokenByIndex(uint256)": {
        "details": "See {IERC721Enumerable-tokenByIndex}."
      },
      "tokenOfOwnerByIndex(address,uint256)": {
        "details": "See {IERC721Enumerable-tokenOfOwnerByIndex}."
      },
      "tokenURI(uint256)": {
        "details": "See {IERC721Metadata-tokenURI}."
      },
      "totalSupply()": {
        "details": "See {IERC721Enumerable-totalSupply}."
      },
      "transferFrom(address,address,uint256)": {
        "details": "See {IERC721-transferFrom}."
      },
      "transferOwnership(address)": {
        "details": "Transfers ownership of the contract to a new account (`newOwner`). Can only be called by the current owner."
      }
    },
    "version": 1
  },
  "userdoc": {
    "kind": "user",
    "methods": {},
    "version": 1
  }
}