{
  "contractName": "ChordusArena",
  "abi": [
    {
      "inputs": [
        {
          "internalType": "string",
          "name": "_name",
          "type": "string"
        },
        {
          "internalType": "string",
          "name": "_symbol",
          "type": "string"
        },
        {
          "internalType": "string",
          "name": "_initBaseURI",
          "type": "string"
        }
      ],
      "stateMutability": "nonpayable",
      "type": "constructor"
    },
    {
      "anonymous": false,
      "inputs": [
        {
          "indexed": true,
          "internalType": "address",
          "name": "owner",
          "type": "address"
        },
        {
          "indexed": true,
          "internalType": "address",
          "name": "approved",
          "type": "address"
        },
        {
          "indexed": true,
          "internalType": "uint256",
          "name": "tokenId",
          "type": "uint256"
        }
      ],
      "name": "Approval",
      "type": "event"
    },
    {
      "anonymous": false,
      "inputs": [
        {
          "indexed": true,
          "internalType": "address",
          "name": "owner",
          "type": "address"
        },
        {
          "indexed": true,
          "internalType": "address",
          "name": "operator",
          "type": "address"
        },
        {
          "indexed": false,
          "internalType": "bool",
          "name": "approved",
          "type": "bool"
        }
      ],
      "name": "ApprovalForAll",
      "type": "event"
    },
    {
      "anonymous": false,
      "inputs": [
        {
          "indexed": true,
          "internalType": "address",
          "name": "previousOwner",
          "type": "address"
        },
        {
          "indexed": true,
          "internalType": "address",
          "name": "newOwner",
          "type": "address"
        }
      ],
      "name": "OwnershipTransferred",
      "type": "event"
    },
    {
      "anonymous": false,
      "inputs": [
        {
          "indexed": true,
          "internalType": "address",
          "name": "from",
          "type": "address"
        },
        {
          "indexed": true,
          "internalType": "address",
          "name": "to",
          "type": "address"
        },
        {
          "indexed": true,
          "internalType": "uint256",
          "name": "tokenId",
          "type": "uint256"
        }
      ],
      "name": "Transfer",
      "type": "event"
    },
    {
      "inputs": [
        {
          "internalType": "address",
          "name": "",
          "type": "address"
        }
      ],
      "name": "addressMintedBalance",
      "outputs": [
        {
          "internalType": "uint256",
          "name": "",
          "type": "uint256"
        }
      ],
      "stateMutability": "view",
      "type": "function",
      "constant": true
    },
    {
      "inputs": [
        {
          "internalType": "address",
          "name": "to",
          "type": "address"
        },
        {
          "internalType": "uint256",
          "name": "tokenId",
          "type": "uint256"
        }
      ],
      "name": "approve",
      "outputs": [],
      "stateMutability": "nonpayable",
      "type": "function"
    },
    {
      "inputs": [
        {
          "internalType": "address",
          "name": "owner",
          "type": "address"
        }
      ],
      "name": "balanceOf",
      "outputs": [
        {
          "internalType": "uint256",
          "name": "",
          "type": "uint256"
        }
      ],
      "stateMutability": "view",
      "type": "function",
      "constant": true
    },
    {
      "inputs": [],
      "name": "baseExtension",
      "outputs": [
        {
          "internalType": "string",
          "name": "",
          "type": "string"
        }
      ],
      "stateMutability": "view",
      "type": "function",
      "constant": true
    },
    {
      "inputs": [],
      "name": "baseURI",
      "outputs": [
        {
          "internalType": "string",
          "name": "",
          "type": "string"
        }
      ],
      "stateMutability": "view",
      "type": "function",
      "constant": true
    },
    {
      "inputs": [],
      "name": "cost",
      "outputs": [
        {
          "internalType": "uint256",
          "name": "",
          "type": "uint256"
        }
      ],
      "stateMutability": "view",
      "type": "function",
      "constant": true
    },
    {
      "inputs": [
        {
          "internalType": "uint256",
          "name": "tokenId",
          "type": "uint256"
        }
      ],
      "name": "getApproved",
      "outputs": [
        {
          "internalType": "address",
          "name": "",
          "type": "address"
        }
      ],
      "stateMutability": "view",
      "type": "function",
      "constant": true
    },
    {
      "inputs": [
        {
          "internalType": "address",
          "name": "owner",
          "type": "address"
        },
        {
          "internalType": "address",
          "name": "operator",
          "type": "address"
        }
      ],
      "name": "isApprovedForAll",
      "outputs": [
        {
          "internalType": "bool",
          "name": "",
          "type": "bool"
        }
      ],
      "stateMutability": "view",
      "type": "function",
      "constant": true
    },
    {
      "inputs": [],
      "name": "maxMintAmount",
      "outputs": [
        {
          "internalType": "uint256",
          "name": "",
          "type": "uint256"
        }
      ],
      "stateMutability": "view",
      "type": "function",
      "constant": true
    },
    {
      "inputs": [],
      "name": "maxSupply",
      "outputs": [
        {
          "internalType": "uint256",
          "name": "",
          "type": "uint256"
        }
      ],
      "stateMutability": "view",
      "type": "function",
      "constant": true
    },
    {
      "inputs": [],
      "name": "name",
      "outputs": [
        {
          "internalType": "string",
          "name": "",
          "type": "string"
        }
      ],
      "stateMutability": "view",
      "type": "function",
      "constant": true
    },
    {
      "inputs": [],
      "name": "nftPerAddressLimit",
      "outputs": [
        {
          "internalType": "uint256",
          "name": "",
          "type": "uint256"
        }
      ],
      "stateMutability": "view",
      "type": "function",
      "constant": true
    },
    {
      "inputs": [],
      "name": "onlyWhitelisted",
      "outputs": [
        {
          "internalType": "bool",
          "name": "",
          "type": "bool"
        }
      ],
      "stateMutability": "view",
      "type": "function",
      "constant": true
    },
    {
      "inputs": [],
      "name": "owner",
      "outputs": [
        {
          "internalType": "address",
          "name": "",
          "type": "address"
        }
      ],
      "stateMutability": "view",
      "type": "function",
      "constant": true
    },
    {
      "inputs": [
        {
          "internalType": "uint256",
          "name": "tokenId",
          "type": "uint256"
        }
      ],
      "name": "ownerOf",
      "outputs": [
        {
          "internalType": "address",
          "name": "",
          "type": "address"
        }
      ],
      "stateMutability": "view",
      "type": "function",
      "constant": true
    },
    {
      "inputs": [],
      "name": "paused",
      "outputs": [
        {
          "internalType": "bool",
          "name": "",
          "type": "bool"
        }
      ],
      "stateMutability": "view",
      "type": "function",
      "constant": true
    },
    {
      "inputs": [],
      "name": "renounceOwnership",
      "outputs": [],
      "stateMutability": "nonpayable",
      "type": "function"
    },
    {
      "inputs": [],
      "name": "revealed",
      "outputs": [
        {
          "internalType": "bool",
          "name": "",
          "type": "bool"
        }
      ],
      "stateMutability": "view",
      "type": "function",
      "constant": true
    },
    {
      "inputs": [
        {
          "internalType": "address",
          "name": "from",
          "type": "address"
        },
        {
          "internalType": "address",
          "name": "to",
          "type": "address"
        },
        {
          "internalType": "uint256",
          "name": "tokenId",
          "type": "uint256"
        }
      ],
      "name": "safeTransferFrom",
      "outputs": [],
      "stateMutability": "nonpayable",
      "type": "function"
    },
    {
      "inputs": [
        {
          "internalType": "address",
          "name": "from",
          "type": "address"
        },
        {
          "internalType": "address",
          "name": "to",
          "type": "address"
        },
        {
          "internalType": "uint256",
          "name": "tokenId",
          "type": "uint256"
        },
        {
          "internalType": "bytes",
          "name": "_data",
          "type": "bytes"
        }
      ],
      "name": "safeTransferFrom",
      "outputs": [],
      "stateMutability": "nonpayable",
      "type": "function"
    },
    {
      "inputs": [
        {
          "internalType": "address",
          "name": "operator",
          "type": "address"
        },
        {
          "internalType": "bool",
          "name": "approved",
          "type": "bool"
        }
      ],
      "name": "setApprovalForAll",
      "outputs": [],
      "stateMutability": "nonpayable",
      "type": "function"
    },
    {
      "inputs": [
        {
          "internalType": "bytes4",
          "name": "interfaceId",
          "type": "bytes4"
        }
      ],
      "name": "supportsInterface",
      "outputs": [
        {
          "internalType": "bool",
          "name": "",
          "type": "bool"
        }
      ],
      "stateMutability": "view",
      "type": "function",
      "constant": true
    },
    {
      "inputs": [],
      "name": "symbol",
      "outputs": [
        {
          "internalType": "string",
          "name": "",
          "type": "string"
        }
      ],
      "stateMutability": "view",
      "type": "function",
      "constant": true
    },
    {
      "inputs": [
        {
          "internalType": "uint256",
          "name": "index",
          "type": "uint256"
        }
      ],
      "name": "tokenByIndex",
      "outputs": [
        {
          "internalType": "uint256",
          "name": "",
          "type": "uint256"
        }
      ],
      "stateMutability": "view",
      "type": "function",
      "constant": true
    },
    {
      "inputs": [
        {
          "internalType": "address",
          "name": "owner",
          "type": "address"
        },
        {
          "internalType": "uint256",
          "name": "index",
          "type": "uint256"
        }
      ],
      "name": "tokenOfOwnerByIndex",
      "outputs": [
        {
          "internalType": "uint256",
          "name": "",
          "type": "uint256"
        }
      ],
      "stateMutability": "view",
      "type": "function",
      "constant": true
    },
    {
      "inputs": [],
      "name": "totalSupply",
      "outputs": [
        {
          "internalType": "uint256",
          "name": "",
          "type": "uint256"
        }
      ],
      "stateMutability": "view",
      "type": "function",
      "constant": true
    },
    {
      "inputs": [
        {
          "internalType": "address",
          "name": "from",
          "type": "address"
        },
        {
          "internalType": "address",
          "name": "to",
          "type": "address"
        },
        {
          "internalType": "uint256",
          "name": "tokenId",
          "type": "uint256"
        }
      ],
      "name": "transferFrom",
      "outputs": [],
      "stateMutability": "nonpayable",
      "type": "function"
    },
    {
      "inputs": [
        {
          "internalType": "address",
          "name": "newOwner",
          "type": "address"
        }
      ],
      "name": "transferOwnership",
      "outputs": [],
      "stateMutability": "nonpayable",
      "type": "function"
    },
    {
      "inputs": [
        {
          "internalType": "uint256",
          "name": "",
          "type": "uint256"
        }
      ],
      "name": "whitelistedAddresses",
      "outputs": [
        {
          "internalType": "address",
          "name": "",
          "type": "address"
        }
      ],
      "stateMutability": "view",
      "type": "function",
      "constant": true
    },
    {
      "inputs": [
        {
          "internalType": "string",
          "name": "_newBaseURI",
          "type": "string"
        }
      ],
      "name": "setBaseURI",
      "outputs": [],
      "stateMutability": "nonpayable",
      "type": "function"
    },
    {
      "inputs": [
        {
          "internalType": "uint256",
          "name": "tokenId",
          "type": "uint256"
        }
      ],
      "name": "tokenURI",
      "outputs": [
        {
          "internalType": "string",
          "name": "",
          "type": "string"
        }
      ],
      "stateMutability": "view",
      "type": "function",
      "constant": true
    },
    {
      "inputs": [
        {
          "internalType": "uint256",
          "name": "_mintAmount",
          "type": "uint256"
        }
      ],
      "name": "mint",
      "outputs": [],
      "stateMutability": "payable",
      "type": "function",
      "payable": true
    },
    {
      "inputs": [
        {
          "internalType": "address",
          "name": "_user",
          "type": "address"
        }
      ],
      "name": "isWhitelisted",
      "outputs": [
        {
          "internalType": "bool",
          "name": "",
          "type": "bool"
        }
      ],
      "stateMutability": "view",
      "type": "function",
      "constant": true
    },
    {
      "inputs": [
        {
          "internalType": "address",
          "name": "_owner",
          "type": "address"
        }
      ],
      "name": "walletOfOwner",
      "outputs": [
        {
          "internalType": "uint256[]",
          "name": "",
          "type": "uint256[]"
        }
      ],
      "stateMutability": "view",
      "type": "function",
      "constant": true
    },
    {
      "inputs": [],
      "name": "reveal",
      "outputs": [],
      "stateMutability": "nonpayable",
      "type": "function"
    },
    {
      "inputs": [
        {
          "internalType": "uint256",
          "name": "_limit",
          "type": "uint256"
        }
      ],
      "name": "setNftPerAddressLimit",
      "outputs": [],
      "stateMutability": "nonpayable",
      "type": "function"
    },
    {
      "inputs": [
        {
          "internalType": "uint256",
          "name": "_newCost",
          "type": "uint256"
        }
      ],
      "name": "setCost",
      "outputs": [],
      "stateMutability": "nonpayable",
      "type": "function"
    },
    {
      "inputs": [
        {
          "internalType": "uint256",
          "name": "_newmaxMintAmount",
          "type": "uint256"
        }
      ],
      "name": "setmaxMintAmount",
      "outputs": [],
      "stateMutability": "nonpayable",
      "type": "function"
    },
    {
      "inputs": [
        {
          "internalType": "string",
          "name": "_newBaseExtension",
          "type": "string"
        }
      ],
      "name": "setBaseExtension",
      "outputs": [],
      "stateMutability": "nonpayable",
      "type": "function"
    },
    {
      "inputs": [
        {
          "internalType": "bool",
          "name": "_state",
          "type": "bool"
        }
      ],
      "name": "pause",
      "outputs": [],
      "stateMutability": "nonpayable",
      "type": "function"
    },
    {
      "inputs": [
        {
          "internalType": "bool",
          "name": "_state",
          "type": "bool"
        }
      ],
      "name": "setOnlyWhitelisted",
      "outputs": [],
      "stateMutability": "nonpayable",
      "type": "function"
    },
    {
      "inputs": [
        {
          "internalType": "address[]",
          "name": "_users",
          "type": "address[]"
        }
      ],
      "name": "whitelistUsers",
      "outputs": [],
      "stateMutability": "nonpayable",
      "type": "function"
    },
    {
      "inputs": [],
      "name": "withdraw",
      "outputs": [],
      "stateMutability": "payable",
      "type": "function",
      "payable": true
    }
  ],
  "bytecode": "0x60806040526040518060400160405280600581526020017f2e6a736f6e000000000000000000000000000000000000000000000000000000815250600c90805190602001906200005192919062000305565b50670de0b6b3a7640000600d55612710600e556014600f5560036010556000601160006101000a81548160ff0219169083151502179055506000601160016101000a81548160ff0219169083151502179055506001601160026101000a81548160ff021916908315150217905550348015620000cc57600080fd5b50604051620053c0380380620053c08339818101604052810190620000f2919062000552565b828281600090805190602001906200010c92919062000305565b5080600190805190602001906200012592919062000305565b505050620001486200013c6200016260201b60201c565b6200016a60201b60201c565b62000159816200023060201b60201c565b505050620006f3565b600033905090565b6000600a60009054906101000a900473ffffffffffffffffffffffffffffffffffffffff16905081600a60006101000a81548173ffffffffffffffffffffffffffffffffffffffff021916908373ffffffffffffffffffffffffffffffffffffffff1602179055508173ffffffffffffffffffffffffffffffffffffffff168173ffffffffffffffffffffffffffffffffffffffff167f8be0079c531659141344cd1fd0a4f28419497f9722a3daafe3b4186f6b6457e060405160405180910390a35050565b620002406200016260201b60201c565b73ffffffffffffffffffffffffffffffffffffffff1662000266620002db60201b60201c565b73ffffffffffffffffffffffffffffffffffffffff1614620002bf576040517f08c379a0000000000000000000000000000000000000000000000000000000008152600401620002b6906200066c565b60405180910390fd5b80600b9080519060200190620002d792919062000305565b5050565b6000600a60009054906101000a900473ffffffffffffffffffffffffffffffffffffffff16905090565b8280546200031390620006bd565b90600052602060002090601f01602090048101928262000337576000855562000383565b82601f106200035257805160ff191683800117855562000383565b8280016001018555821562000383579182015b828111156200038257825182559160200191906001019062000365565b5b50905062000392919062000396565b5090565b5b80821115620003b157600081600090555060010162000397565b5090565b6000604051905090565b600080fd5b600080fd5b600080fd5b600080fd5b6000601f19601f8301169050919050565b7f4e487b7100000000000000000000000000000000000000000000000000000000600052604160045260246000fd5b6200041e82620003d3565b810181811067ffffffffffffffff8211171562000440576200043f620003e4565b5b80604052505050565b600062000455620003b5565b905062000463828262000413565b919050565b600067ffffffffffffffff821115620004865762000485620003e4565b5b6200049182620003d3565b9050602081019050919050565b60005b83811015620004be578082015181840152602081019050620004a1565b83811115620004ce576000848401525b50505050565b6000620004eb620004e58462000468565b62000449565b9050828152602081018484840111156200050a5762000509620003ce565b5b620005178482856200049e565b509392505050565b600082601f830112620005375762000536620003c9565b5b815162000549848260208601620004d4565b91505092915050565b6000806000606084860312156200056e576200056d620003bf565b5b600084015167ffffffffffffffff8111156200058f576200058e620003c4565b5b6200059d868287016200051f565b935050602084015167ffffffffffffffff811115620005c157620005c0620003c4565b5b620005cf868287016200051f565b925050604084015167ffffffffffffffff811115620005f357620005f2620003c4565b5b62000601868287016200051f565b9150509250925092565b600082825260208201905092915050565b7f4f776e61626c653a2063616c6c6572206973206e6f7420746865206f776e6572600082015250565b6000620006546020836200060b565b915062000661826200061c565b602082019050919050565b60006020820190508181036000830152620006878162000645565b9050919050565b7f4e487b7100000000000000000000000000000000000000000000000000000000600052602260045260246000fd5b60006002820490506001821680620006d657607f821691505b60208210811415620006ed57620006ec6200068e565b5b50919050565b614cbd80620007036000396000f3fe60806040526004361061025c5760003560e01c80636352211e11610144578063b88d4fde116100b6578063d0eb26b01161007a578063d0eb26b0146108f2578063d5abeb011461091b578063da3ef23f14610946578063e985e9c51461096f578063edec5f27146109ac578063f2fde38b146109d55761025c565b8063b88d4fde146107f9578063ba4e5c4914610822578063ba7d2c761461085f578063c66828621461088a578063c87b56dd146108b55761025c565b80638da5cb5b116101085780638da5cb5b1461071c57806395d89b41146107475780639c70b51214610772578063a0712d681461079d578063a22cb465146107b9578063a475b5dd146107e25761025c565b80636352211e146106375780636c0360eb1461067457806370a082311461069f578063715018a6146106dc5780637f00c7a6146106f35761025c565b80632f745c59116101dd578063438b6300116101a1578063438b63001461051557806344a0d68a146105525780634f6ccce71461057b57806351830227146105b857806355f804b3146105e35780635c975abb1461060c5761025c565b80632f745c591461043f5780633af32abf1461047c5780633c952764146104b95780633ccfd60b146104e257806342842e0e146104ec5761025c565b806313faede61161022457806313faede61461035857806318160ddd1461038357806318cae269146103ae578063239c70ae146103eb57806323b872dd146104165761025c565b806301ffc9a71461026157806302329a291461029e57806306fdde03146102c7578063081812fc146102f2578063095ea7b31461032f575b600080fd5b34801561026d57600080fd5b5061028860048036038101906102839190613423565b6109fe565b604051610295919061346b565b60405180910390f35b3480156102aa57600080fd5b506102c560048036038101906102c091906134b2565b610a78565b005b3480156102d357600080fd5b506102dc610b11565b6040516102e99190613578565b60405180910390f35b3480156102fe57600080fd5b50610319600480360381019061031491906135d0565b610ba3565b604051610326919061363e565b60405180910390f35b34801561033b57600080fd5b5061035660048036038101906103519190613685565b610c28565b005b34801561036457600080fd5b5061036d610d40565b60405161037a91906136d4565b60405180910390f35b34801561038f57600080fd5b50610398610d46565b6040516103a591906136d4565b60405180910390f35b3480156103ba57600080fd5b506103d560048036038101906103d091906136ef565b610d53565b6040516103e291906136d4565b60405180910390f35b3480156103f757600080fd5b50610400610d6b565b60405161040d91906136d4565b60405180910390f35b34801561042257600080fd5b5061043d6004803603810190610438919061371c565b610d71565b005b34801561044b57600080fd5b5061046660048036038101906104619190613685565b610dd1565b60405161047391906136d4565b60405180910390f35b34801561048857600080fd5b506104a3600480360381019061049e91906136ef565b610e76565b6040516104b0919061346b565b60405180910390f35b3480156104c557600080fd5b506104e060048036038101906104db91906134b2565b610f25565b005b6104ea610fbe565b005b3480156104f857600080fd5b50610513600480360381019061050e919061371c565b6110b3565b005b34801561052157600080fd5b5061053c600480360381019061053791906136ef565b6110d3565b604051610549919061382d565b60405180910390f35b34801561055e57600080fd5b50610579600480360381019061057491906135d0565b611181565b005b34801561058757600080fd5b506105a2600480360381019061059d91906135d0565b611207565b6040516105af91906136d4565b60405180910390f35b3480156105c457600080fd5b506105cd611278565b6040516105da919061346b565b60405180910390f35b3480156105ef57600080fd5b5061060a60048036038101906106059190613984565b61128b565b005b34801561061857600080fd5b50610621611321565b60405161062e919061346b565b60405180910390f35b34801561064357600080fd5b5061065e600480360381019061065991906135d0565b611334565b60405161066b919061363e565b60405180910390f35b34801561068057600080fd5b506106896113e6565b6040516106969190613578565b60405180910390f35b3480156106ab57600080fd5b506106c660048036038101906106c191906136ef565b611474565b6040516106d391906136d4565b60405180910390f35b3480156106e857600080fd5b506106f161152c565b005b3480156106ff57600080fd5b5061071a600480360381019061071591906135d0565b6115b4565b005b34801561072857600080fd5b5061073161163a565b60405161073e919061363e565b60405180910390f35b34801561075357600080fd5b5061075c611664565b6040516107699190613578565b60405180910390f35b34801561077e57600080fd5b506107876116f6565b604051610794919061346b565b60405180910390f35b6107b760048036038101906107b291906135d0565b611709565b005b3480156107c557600080fd5b506107e060048036038101906107db91906139cd565b611a52565b005b3480156107ee57600080fd5b506107f7611a68565b005b34801561080557600080fd5b50610820600480360381019061081b9190613aae565b611b01565b005b34801561082e57600080fd5b50610849600480360381019061084491906135d0565b611b63565b604051610856919061363e565b60405180910390f35b34801561086b57600080fd5b50610874611ba2565b60405161088191906136d4565b60405180910390f35b34801561089657600080fd5b5061089f611ba8565b6040516108ac9190613578565b60405180910390f35b3480156108c157600080fd5b506108dc60048036038101906108d791906135d0565b611c36565b6040516108e99190613578565b60405180910390f35b3480156108fe57600080fd5b50610919600480360381019061091491906135d0565b611ca4565b005b34801561092757600080fd5b50610930611d2a565b60405161093d91906136d4565b60405180910390f35b34801561095257600080fd5b5061096d60048036038101906109689190613984565b611d30565b005b34801561097b57600080fd5b5061099660048036038101906109919190613b31565b611dc6565b6040516109a3919061346b565b60405180910390f35b3480156109b857600080fd5b506109d360048036038101906109ce9190613bd1565b611e5a565b005b3480156109e157600080fd5b506109fc60048036038101906109f791906136ef565b611efa565b005b60007f780e9d63000000000000000000000000000000000000000000000000000000007bffffffffffffffffffffffffffffffffffffffffffffffffffffffff1916827bffffffffffffffffffffffffffffffffffffffffffffffffffffffff19161480610a715750610a7082611ff2565b5b9050919050565b610a806120d4565b73ffffffffffffffffffffffffffffffffffffffff16610a9e61163a565b73ffffffffffffffffffffffffffffffffffffffff1614610af4576040517f08c379a0000000000000000000000000000000000000000000000000000000008152600401610aeb90613c6a565b60405180910390fd5b80601160006101000a81548160ff02191690831515021790555050565b606060008054610b2090613cb9565b80601f0160208091040260200160405190810160405280929190818152602001828054610b4c90613cb9565b8015610b995780601f10610b6e57610100808354040283529160200191610b99565b820191906000526020600020905b815481529060010190602001808311610b7c57829003601f168201915b5050505050905090565b6000610bae826120dc565b610bed576040517f08c379a0000000000000000000000000000000000000000000000000000000008152600401610be490613d5d565b60405180910390fd5b6004600083815260200190815260200160002060009054906101000a900473ffffffffffffffffffffffffffffffffffffffff169050919050565b6000610c3382611334565b90508073ffffffffffffffffffffffffffffffffffffffff168373ffffffffffffffffffffffffffffffffffffffff161415610ca4576040517f08c379a0000000000000000000000000000000000000000000000000000000008152600401610c9b90613def565b60405180910390fd5b8073ffffffffffffffffffffffffffffffffffffffff16610cc36120d4565b73ffffffffffffffffffffffffffffffffffffffff161480610cf25750610cf181610cec6120d4565b611dc6565b5b610d31576040517f08c379a0000000000000000000000000000000000000000000000000000000008152600401610d2890613e81565b60405180910390fd5b610d3b8383612148565b505050565b600d5481565b6000600880549050905090565b60136020528060005260406000206000915090505481565b600f5481565b610d82610d7c6120d4565b82612201565b610dc1576040517f08c379a0000000000000000000000000000000000000000000000000000000008152600401610db890613f13565b60405180910390fd5b610dcc8383836122df565b505050565b6000610ddc83611474565b8210610e1d576040517f08c379a0000000000000000000000000000000000000000000000000000000008152600401610e1490613fa5565b60405180910390fd5b600660008473ffffffffffffffffffffffffffffffffffffffff1673ffffffffffffffffffffffffffffffffffffffff168152602001908152602001600020600083815260200190815260200160002054905092915050565b600080600090505b601280549050811015610f1a578273ffffffffffffffffffffffffffffffffffffffff1660128281548110610eb657610eb5613fc5565b5b9060005260206000200160009054906101000a900473ffffffffffffffffffffffffffffffffffffffff1673ffffffffffffffffffffffffffffffffffffffff161415610f07576001915050610f20565b8080610f1290614023565b915050610e7e565b50600090505b919050565b610f2d6120d4565b73ffffffffffffffffffffffffffffffffffffffff16610f4b61163a565b73ffffffffffffffffffffffffffffffffffffffff1614610fa1576040517f08c379a0000000000000000000000000000000000000000000000000000000008152600401610f9890613c6a565b60405180910390fd5b80601160026101000a81548160ff02191690831515021790555050565b610fc66120d4565b73ffffffffffffffffffffffffffffffffffffffff16610fe461163a565b73ffffffffffffffffffffffffffffffffffffffff161461103a576040517f08c379a000000000000000000000000000000000000000000000000000000000815260040161103190613c6a565b60405180910390fd5b60003373ffffffffffffffffffffffffffffffffffffffff16476040516110609061409d565b60006040518083038185875af1925050503d806000811461109d576040519150601f19603f3d011682016040523d82523d6000602084013e6110a2565b606091505b50509050806110b057600080fd5b50565b6110ce83838360405180602001604052806000815250611b01565b505050565b606060006110e083611474565b905060008167ffffffffffffffff8111156110fe576110fd613859565b5b60405190808252806020026020018201604052801561112c5781602001602082028036833780820191505090505b50905060005b82811015611176576111448582610dd1565b82828151811061115757611156613fc5565b5b602002602001018181525050808061116e90614023565b915050611132565b508092505050919050565b6111896120d4565b73ffffffffffffffffffffffffffffffffffffffff166111a761163a565b73ffffffffffffffffffffffffffffffffffffffff16146111fd576040517f08c379a00000000000000000000000000000000000000000000000000000000081526004016111f490613c6a565b60405180910390fd5b80600d8190555050565b6000611211610d46565b8210611252576040517f08c379a000000000000000000000000000000000000000000000000000000000815260040161124990614124565b60405180910390fd5b6008828154811061126657611265613fc5565b5b90600052602060002001549050919050565b601160019054906101000a900460ff1681565b6112936120d4565b73ffffffffffffffffffffffffffffffffffffffff166112b161163a565b73ffffffffffffffffffffffffffffffffffffffff1614611307576040517f08c379a00000000000000000000000000000000000000000000000000000000081526004016112fe90613c6a565b60405180910390fd5b80600b908051906020019061131d929190613253565b5050565b601160009054906101000a900460ff1681565b6000806002600084815260200190815260200160002060009054906101000a900473ffffffffffffffffffffffffffffffffffffffff169050600073ffffffffffffffffffffffffffffffffffffffff168173ffffffffffffffffffffffffffffffffffffffff1614156113dd576040517f08c379a00000000000000000000000000000000000000000000000000000000081526004016113d4906141b6565b60405180910390fd5b80915050919050565b600b80546113f390613cb9565b80601f016020809104026020016040519081016040528092919081815260200182805461141f90613cb9565b801561146c5780601f106114415761010080835404028352916020019161146c565b820191906000526020600020905b81548152906001019060200180831161144f57829003601f168201915b505050505081565b60008073ffffffffffffffffffffffffffffffffffffffff168273ffffffffffffffffffffffffffffffffffffffff1614156114e5576040517f08c379a00000000000000000000000000000000000000000000000000000000081526004016114dc90614248565b60405180910390fd5b600360008373ffffffffffffffffffffffffffffffffffffffff1673ffffffffffffffffffffffffffffffffffffffff168152602001908152602001600020549050919050565b6115346120d4565b73ffffffffffffffffffffffffffffffffffffffff1661155261163a565b73ffffffffffffffffffffffffffffffffffffffff16146115a8576040517f08c379a000000000000000000000000000000000000000000000000000000000815260040161159f90613c6a565b60405180910390fd5b6115b26000612546565b565b6115bc6120d4565b73ffffffffffffffffffffffffffffffffffffffff166115da61163a565b73ffffffffffffffffffffffffffffffffffffffff1614611630576040517f08c379a000000000000000000000000000000000000000000000000000000000815260040161162790613c6a565b60405180910390fd5b80600f8190555050565b6000600a60009054906101000a900473ffffffffffffffffffffffffffffffffffffffff16905090565b60606001805461167390613cb9565b80601f016020809104026020016040519081016040528092919081815260200182805461169f90613cb9565b80156116ec5780601f106116c1576101008083540402835291602001916116ec565b820191906000526020600020905b8154815290600101906020018083116116cf57829003601f168201915b5050505050905090565b601160029054906101000a900460ff1681565b601160009054906101000a900460ff1615611759576040517f08c379a0000000000000000000000000000000000000000000000000000000008152600401611750906142b4565b60405180910390fd5b6000611763610d46565b9050600082116117a8576040517f08c379a000000000000000000000000000000000000000000000000000000000815260040161179f90614320565b60405180910390fd5b600f548211156117ed576040517f08c379a00000000000000000000000000000000000000000000000000000000081526004016117e4906143b2565b60405180910390fd5b600e5482826117fc91906143d2565b111561183d576040517f08c379a000000000000000000000000000000000000000000000000000000000815260040161183490614474565b60405180910390fd5b61184561163a565b73ffffffffffffffffffffffffffffffffffffffff163373ffffffffffffffffffffffffffffffffffffffff16146119c25760011515601160029054906101000a900460ff16151514156119715761189c33610e76565b6118db576040517f08c379a00000000000000000000000000000000000000000000000000000000081526004016118d2906144e0565b60405180910390fd5b6000601360003373ffffffffffffffffffffffffffffffffffffffff1673ffffffffffffffffffffffffffffffffffffffff168152602001908152602001600020549050601054838261192e91906143d2565b111561196f576040517f08c379a00000000000000000000000000000000000000000000000000000000081526004016119669061454c565b60405180910390fd5b505b81600d5461197f919061456c565b3410156119c1576040517f08c379a00000000000000000000000000000000000000000000000000000000081526004016119b890614612565b60405180910390fd5b5b6000600190505b828111611a4d57601360003373ffffffffffffffffffffffffffffffffffffffff1673ffffffffffffffffffffffffffffffffffffffff1681526020019081526020016000206000815480929190611a2090614023565b9190505550611a3a338284611a3591906143d2565b61260c565b8080611a4590614023565b9150506119c9565b505050565b611a64611a5d6120d4565b838361262a565b5050565b611a706120d4565b73ffffffffffffffffffffffffffffffffffffffff16611a8e61163a565b73ffffffffffffffffffffffffffffffffffffffff1614611ae4576040517f08c379a0000000000000000000000000000000000000000000000000000000008152600401611adb90613c6a565b60405180910390fd5b6001601160016101000a81548160ff021916908315150217905550565b611b12611b0c6120d4565b83612201565b611b51576040517f08c379a0000000000000000000000000000000000000000000000000000000008152600401611b4890613f13565b60405180910390fd5b611b5d84848484612797565b50505050565b60128181548110611b7357600080fd5b906000526020600020016000915054906101000a900473ffffffffffffffffffffffffffffffffffffffff1681565b60105481565b600c8054611bb590613cb9565b80601f0160208091040260200160405190810160405280929190818152602001828054611be190613cb9565b8015611c2e5780601f10611c0357610100808354040283529160200191611c2e565b820191906000526020600020905b815481529060010190602001808311611c1157829003601f168201915b505050505081565b6060600e54821115611c4757600080fd5b6000611c516127f3565b90506000815111611c715760405180602001604052806000815250611c9c565b80611c7b84612885565b604051602001611c8c92919061466e565b6040516020818303038152906040525b915050919050565b611cac6120d4565b73ffffffffffffffffffffffffffffffffffffffff16611cca61163a565b73ffffffffffffffffffffffffffffffffffffffff1614611d20576040517f08c379a0000000000000000000000000000000000000000000000000000000008152600401611d1790613c6a565b60405180910390fd5b8060108190555050565b600e5481565b611d386120d4565b73ffffffffffffffffffffffffffffffffffffffff16611d5661163a565b73ffffffffffffffffffffffffffffffffffffffff1614611dac576040517f08c379a0000000000000000000000000000000000000000000000000000000008152600401611da390613c6a565b60405180910390fd5b80600c9080519060200190611dc2929190613253565b5050565b6000600560008473ffffffffffffffffffffffffffffffffffffffff1673ffffffffffffffffffffffffffffffffffffffff16815260200190815260200160002060008373ffffffffffffffffffffffffffffffffffffffff1673ffffffffffffffffffffffffffffffffffffffff16815260200190815260200160002060009054906101000a900460ff16905092915050565b611e626120d4565b73ffffffffffffffffffffffffffffffffffffffff16611e8061163a565b73ffffffffffffffffffffffffffffffffffffffff1614611ed6576040517f08c379a0000000000000000000000000000000000000000000000000000000008152600401611ecd90613c6a565b60405180910390fd5b60126000611ee491906132d9565b818160129190611ef59291906132fa565b505050565b611f026120d4565b73ffffffffffffffffffffffffffffffffffffffff16611f2061163a565b73ffffffffffffffffffffffffffffffffffffffff1614611f76576040517f08c379a0000000000000000000000000000000000000000000000000000000008152600401611f6d90613c6a565b60405180910390fd5b600073ffffffffffffffffffffffffffffffffffffffff168173ffffffffffffffffffffffffffffffffffffffff161415611fe6576040517f08c379a0000000000000000000000000000000000000000000000000000000008152600401611fdd90614704565b60405180910390fd5b611fef81612546565b50565b60007f80ac58cd000000000000000000000000000000000000000000000000000000007bffffffffffffffffffffffffffffffffffffffffffffffffffffffff1916827bffffffffffffffffffffffffffffffffffffffffffffffffffffffff191614806120bd57507f5b5e139f000000000000000000000000000000000000000000000000000000007bffffffffffffffffffffffffffffffffffffffffffffffffffffffff1916827bffffffffffffffffffffffffffffffffffffffffffffffffffffffff1916145b806120cd57506120cc826129e6565b5b9050919050565b600033905090565b60008073ffffffffffffffffffffffffffffffffffffffff166002600084815260200190815260200160002060009054906101000a900473ffffffffffffffffffffffffffffffffffffffff1673ffffffffffffffffffffffffffffffffffffffff1614159050919050565b816004600083815260200190815260200160002060006101000a81548173ffffffffffffffffffffffffffffffffffffffff021916908373ffffffffffffffffffffffffffffffffffffffff160217905550808273ffffffffffffffffffffffffffffffffffffffff166121bb83611334565b73ffffffffffffffffffffffffffffffffffffffff167f8c5be1e5ebec7d5bd14f71427d1e84f3dd0314c0f7b2291e5b200ac8c7c3b92560405160405180910390a45050565b600061220c826120dc565b61224b576040517f08c379a000000000000000000000000000000000000000000000000000000000815260040161224290614796565b60405180910390fd5b600061225683611334565b90508073ffffffffffffffffffffffffffffffffffffffff168473ffffffffffffffffffffffffffffffffffffffff1614806122c557508373ffffffffffffffffffffffffffffffffffffffff166122ad84610ba3565b73ffffffffffffffffffffffffffffffffffffffff16145b806122d657506122d58185611dc6565b5b91505092915050565b8273ffffffffffffffffffffffffffffffffffffffff166122ff82611334565b73ffffffffffffffffffffffffffffffffffffffff1614612355576040517f08c379a000000000000000000000000000000000000000000000000000000000815260040161234c90614828565b60405180910390fd5b600073ffffffffffffffffffffffffffffffffffffffff168273ffffffffffffffffffffffffffffffffffffffff1614156123c5576040517f08c379a00000000000000000000000000000000000000000000000000000000081526004016123bc906148ba565b60405180910390fd5b6123d0838383612a50565b6123db600082612148565b6001600360008573ffffffffffffffffffffffffffffffffffffffff1673ffffffffffffffffffffffffffffffffffffffff168152602001908152602001600020600082825461242b91906148da565b925050819055506001600360008473ffffffffffffffffffffffffffffffffffffffff1673ffffffffffffffffffffffffffffffffffffffff168152602001908152602001600020600082825461248291906143d2565b92505081905550816002600083815260200190815260200160002060006101000a81548173ffffffffffffffffffffffffffffffffffffffff021916908373ffffffffffffffffffffffffffffffffffffffff160217905550808273ffffffffffffffffffffffffffffffffffffffff168473ffffffffffffffffffffffffffffffffffffffff167fddf252ad1be2c89b69c2b068fc378daa952ba7f163c4a11628f55a4df523b3ef60405160405180910390a4612541838383612b64565b505050565b6000600a60009054906101000a900473ffffffffffffffffffffffffffffffffffffffff16905081600a60006101000a81548173ffffffffffffffffffffffffffffffffffffffff021916908373ffffffffffffffffffffffffffffffffffffffff1602179055508173ffffffffffffffffffffffffffffffffffffffff168173ffffffffffffffffffffffffffffffffffffffff167f8be0079c531659141344cd1fd0a4f28419497f9722a3daafe3b4186f6b6457e060405160405180910390a35050565b612626828260405180602001604052806000815250612b69565b5050565b8173ffffffffffffffffffffffffffffffffffffffff168373ffffffffffffffffffffffffffffffffffffffff161415612699576040517f08c379a00000000000000000000000000000000000000000000000000000000081526004016126909061495a565b60405180910390fd5b80600560008573ffffffffffffffffffffffffffffffffffffffff1673ffffffffffffffffffffffffffffffffffffffff16815260200190815260200160002060008473ffffffffffffffffffffffffffffffffffffffff1673ffffffffffffffffffffffffffffffffffffffff16815260200190815260200160002060006101000a81548160ff0219169083151502179055508173ffffffffffffffffffffffffffffffffffffffff168373ffffffffffffffffffffffffffffffffffffffff167f17307eab39ab6107e8899845ad3d59bd9653f200f220920489ca2b5937696c318360405161278a919061346b565b60405180910390a3505050565b6127a28484846122df565b6127ae84848484612bc4565b6127ed576040517f08c379a00000000000000000000000000000000000000000000000000000000081526004016127e4906149ec565b60405180910390fd5b50505050565b6060600b805461280290613cb9565b80601f016020809104026020016040519081016040528092919081815260200182805461282e90613cb9565b801561287b5780601f106128505761010080835404028352916020019161287b565b820191906000526020600020905b81548152906001019060200180831161285e57829003601f168201915b5050505050905090565b606060008214156128cd576040518060400160405280600181526020017f300000000000000000000000000000000000000000000000000000000000000081525090506129e1565b600082905060005b600082146128ff5780806128e890614023565b915050600a826128f89190614a3b565b91506128d5565b60008167ffffffffffffffff81111561291b5761291a613859565b5b6040519080825280601f01601f19166020018201604052801561294d5781602001600182028036833780820191505090505b5090505b600085146129da5760018261296691906148da565b9150600a856129759190614a6c565b603061298191906143d2565b60f81b81838151811061299757612996613fc5565b5b60200101907effffffffffffffffffffffffffffffffffffffffffffffffffffffffffffff1916908160001a905350600a856129d39190614a3b565b9450612951565b8093505050505b919050565b60007f01ffc9a7000000000000000000000000000000000000000000000000000000007bffffffffffffffffffffffffffffffffffffffffffffffffffffffff1916827bffffffffffffffffffffffffffffffffffffffffffffffffffffffff1916149050919050565b612a5b838383612d5b565b600073ffffffffffffffffffffffffffffffffffffffff168373ffffffffffffffffffffffffffffffffffffffff161415612a9e57612a9981612d60565b612add565b8173ffffffffffffffffffffffffffffffffffffffff168373ffffffffffffffffffffffffffffffffffffffff1614612adc57612adb8382612da9565b5b5b600073ffffffffffffffffffffffffffffffffffffffff168273ffffffffffffffffffffffffffffffffffffffff161415612b2057612b1b81612f16565b612b5f565b8273ffffffffffffffffffffffffffffffffffffffff168273ffffffffffffffffffffffffffffffffffffffff1614612b5e57612b5d8282612fe7565b5b5b505050565b505050565b612b738383613066565b612b806000848484612bc4565b612bbf576040517f08c379a0000000000000000000000000000000000000000000000000000000008152600401612bb6906149ec565b60405180910390fd5b505050565b6000612be58473ffffffffffffffffffffffffffffffffffffffff16613240565b15612d4e578373ffffffffffffffffffffffffffffffffffffffff1663150b7a02612c0e6120d4565b8786866040518563ffffffff1660e01b8152600401612c309493929190614af2565b602060405180830381600087803b158015612c4a57600080fd5b505af1925050508015612c7b57506040513d601f19601f82011682018060405250810190612c789190614b53565b60015b612cfe573d8060008114612cab576040519150601f19603f3d011682016040523d82523d6000602084013e612cb0565b606091505b50600081511415612cf6576040517f08c379a0000000000000000000000000000000000000000000000000000000008152600401612ced906149ec565b60405180910390fd5b805181602001fd5b63150b7a0260e01b7bffffffffffffffffffffffffffffffffffffffffffffffffffffffff1916817bffffffffffffffffffffffffffffffffffffffffffffffffffffffff191614915050612d53565b600190505b949350505050565b505050565b6008805490506009600083815260200190815260200160002081905550600881908060018154018082558091505060019003906000526020600020016000909190919091505550565b60006001612db684611474565b612dc091906148da565b9050600060076000848152602001908152602001600020549050818114612ea5576000600660008673ffffffffffffffffffffffffffffffffffffffff1673ffffffffffffffffffffffffffffffffffffffff168152602001908152602001600020600084815260200190815260200160002054905080600660008773ffffffffffffffffffffffffffffffffffffffff1673ffffffffffffffffffffffffffffffffffffffff168152602001908152602001600020600084815260200190815260200160002081905550816007600083815260200190815260200160002081905550505b6007600084815260200190815260200160002060009055600660008573ffffffffffffffffffffffffffffffffffffffff1673ffffffffffffffffffffffffffffffffffffffff16815260200190815260200160002060008381526020019081526020016000206000905550505050565b60006001600880549050612f2a91906148da565b9050600060096000848152602001908152602001600020549050600060088381548110612f5a57612f59613fc5565b5b906000526020600020015490508060088381548110612f7c57612f7b613fc5565b5b906000526020600020018190555081600960008381526020019081526020016000208190555060096000858152602001908152602001600020600090556008805480612fcb57612fca614b80565b5b6001900381819060005260206000200160009055905550505050565b6000612ff283611474565b905081600660008573ffffffffffffffffffffffffffffffffffffffff1673ffffffffffffffffffffffffffffffffffffffff168152602001908152602001600020600083815260200190815260200160002081905550806007600084815260200190815260200160002081905550505050565b600073ffffffffffffffffffffffffffffffffffffffff168273ffffffffffffffffffffffffffffffffffffffff1614156130d6576040517f08c379a00000000000000000000000000000000000000000000000000000000081526004016130cd90614bfb565b60405180910390fd5b6130df816120dc565b1561311f576040517f08c379a000000000000000000000000000000000000000000000000000000000815260040161311690614c67565b60405180910390fd5b61312b60008383612a50565b6001600360008473ffffffffffffffffffffffffffffffffffffffff1673ffffffffffffffffffffffffffffffffffffffff168152602001908152602001600020600082825461317b91906143d2565b92505081905550816002600083815260200190815260200160002060006101000a81548173ffffffffffffffffffffffffffffffffffffffff021916908373ffffffffffffffffffffffffffffffffffffffff160217905550808273ffffffffffffffffffffffffffffffffffffffff16600073ffffffffffffffffffffffffffffffffffffffff167fddf252ad1be2c89b69c2b068fc378daa952ba7f163c4a11628f55a4df523b3ef60405160405180910390a461323c60008383612b64565b5050565b600080823b905060008111915050919050565b82805461325f90613cb9565b90600052602060002090601f01602090048101928261328157600085556132c8565b82601f1061329a57805160ff19168380011785556132c8565b828001600101855582156132c8579182015b828111156132c75782518255916020019190600101906132ac565b5b5090506132d5919061339a565b5090565b50805460008255906000526020600020908101906132f7919061339a565b50565b828054828255906000526020600020908101928215613389579160200282015b8281111561338857823573ffffffffffffffffffffffffffffffffffffffff168260006101000a81548173ffffffffffffffffffffffffffffffffffffffff021916908373ffffffffffffffffffffffffffffffffffffffff1602179055509160200191906001019061331a565b5b509050613396919061339a565b5090565b5b808211156133b357600081600090555060010161339b565b5090565b6000604051905090565b600080fd5b600080fd5b60007fffffffff0000000000000000000000000000000000000000000000000000000082169050919050565b613400816133cb565b811461340b57600080fd5b50565b60008135905061341d816133f7565b92915050565b600060208284031215613439576134386133c1565b5b60006134478482850161340e565b91505092915050565b60008115159050919050565b61346581613450565b82525050565b6000602082019050613480600083018461345c565b92915050565b61348f81613450565b811461349a57600080fd5b50565b6000813590506134ac81613486565b92915050565b6000602082840312156134c8576134c76133c1565b5b60006134d68482850161349d565b91505092915050565b600081519050919050565b600082825260208201905092915050565b60005b838110156135195780820151818401526020810190506134fe565b83811115613528576000848401525b50505050565b6000601f19601f8301169050919050565b600061354a826134df565b61355481856134ea565b93506135648185602086016134fb565b61356d8161352e565b840191505092915050565b60006020820190508181036000830152613592818461353f565b905092915050565b6000819050919050565b6135ad8161359a565b81146135b857600080fd5b50565b6000813590506135ca816135a4565b92915050565b6000602082840312156135e6576135e56133c1565b5b60006135f4848285016135bb565b91505092915050565b600073ffffffffffffffffffffffffffffffffffffffff82169050919050565b6000613628826135fd565b9050919050565b6136388161361d565b82525050565b6000602082019050613653600083018461362f565b92915050565b6136628161361d565b811461366d57600080fd5b50565b60008135905061367f81613659565b92915050565b6000806040838503121561369c5761369b6133c1565b5b60006136aa85828601613670565b92505060206136bb858286016135bb565b9150509250929050565b6136ce8161359a565b82525050565b60006020820190506136e960008301846136c5565b92915050565b600060208284031215613705576137046133c1565b5b600061371384828501613670565b91505092915050565b600080600060608486031215613735576137346133c1565b5b600061374386828701613670565b935050602061375486828701613670565b9250506040613765868287016135bb565b9150509250925092565b600081519050919050565b600082825260208201905092915050565b6000819050602082019050919050565b6137a48161359a565b82525050565b60006137b6838361379b565b60208301905092915050565b6000602082019050919050565b60006137da8261376f565b6137e4818561377a565b93506137ef8361378b565b8060005b8381101561382057815161380788826137aa565b9750613812836137c2565b9250506001810190506137f3565b5085935050505092915050565b6000602082019050818103600083015261384781846137cf565b905092915050565b600080fd5b600080fd5b7f4e487b7100000000000000000000000000000000000000000000000000000000600052604160045260246000fd5b6138918261352e565b810181811067ffffffffffffffff821117156138b0576138af613859565b5b80604052505050565b60006138c36133b7565b90506138cf8282613888565b919050565b600067ffffffffffffffff8211156138ef576138ee613859565b5b6138f88261352e565b9050602081019050919050565b82818337600083830152505050565b6000613927613922846138d4565b6138b9565b90508281526020810184848401111561394357613942613854565b5b61394e848285613905565b509392505050565b600082601f83011261396b5761396a61384f565b5b813561397b848260208601613914565b91505092915050565b60006020828403121561399a576139996133c1565b5b600082013567ffffffffffffffff8111156139b8576139b76133c6565b5b6139c484828501613956565b91505092915050565b600080604083850312156139e4576139e36133c1565b5b60006139f285828601613670565b9250506020613a038582860161349d565b9150509250929050565b600067ffffffffffffffff821115613a2857613a27613859565b5b613a318261352e565b9050602081019050919050565b6000613a51613a4c84613a0d565b6138b9565b905082815260208101848484011115613a6d57613a6c613854565b5b613a78848285613905565b509392505050565b600082601f830112613a9557613a9461384f565b5b8135613aa5848260208601613a3e565b91505092915050565b60008060008060808587031215613ac857613ac76133c1565b5b6000613ad687828801613670565b9450506020613ae787828801613670565b9350506040613af8878288016135bb565b925050606085013567ffffffffffffffff811115613b1957613b186133c6565b5b613b2587828801613a80565b91505092959194509250565b60008060408385031215613b4857613b476133c1565b5b6000613b5685828601613670565b9250506020613b6785828601613670565b9150509250929050565b600080fd5b600080fd5b60008083601f840112613b9157613b9061384f565b5b8235905067ffffffffffffffff811115613bae57613bad613b71565b5b602083019150836020820283011115613bca57613bc9613b76565b5b9250929050565b60008060208385031215613be857613be76133c1565b5b600083013567ffffffffffffffff811115613c0657613c056133c6565b5b613c1285828601613b7b565b92509250509250929050565b7f4f776e61626c653a2063616c6c6572206973206e6f7420746865206f776e6572600082015250565b6000613c546020836134ea565b9150613c5f82613c1e565b602082019050919050565b60006020820190508181036000830152613c8381613c47565b9050919050565b7f4e487b7100000000000000000000000000000000000000000000000000000000600052602260045260246000fd5b60006002820490506001821680613cd157607f821691505b60208210811415613ce557613ce4613c8a565b5b50919050565b7f4552433732313a20617070726f76656420717565727920666f72206e6f6e657860008201527f697374656e7420746f6b656e0000000000000000000000000000000000000000602082015250565b6000613d47602c836134ea565b9150613d5282613ceb565b604082019050919050565b60006020820190508181036000830152613d7681613d3a565b9050919050565b7f4552433732313a20617070726f76616c20746f2063757272656e74206f776e6560008201527f7200000000000000000000000000000000000000000000000000000000000000602082015250565b6000613dd96021836134ea565b9150613de482613d7d565b604082019050919050565b60006020820190508181036000830152613e0881613dcc565b9050919050565b7f4552433732313a20617070726f76652063616c6c6572206973206e6f74206f7760008201527f6e6572206e6f7220617070726f76656420666f7220616c6c0000000000000000602082015250565b6000613e6b6038836134ea565b9150613e7682613e0f565b604082019050919050565b60006020820190508181036000830152613e9a81613e5e565b9050919050565b7f4552433732313a207472616e736665722063616c6c6572206973206e6f74206f60008201527f776e6572206e6f7220617070726f766564000000000000000000000000000000602082015250565b6000613efd6031836134ea565b9150613f0882613ea1565b604082019050919050565b60006020820190508181036000830152613f2c81613ef0565b9050919050565b7f455243373231456e756d657261626c653a206f776e657220696e646578206f7560008201527f74206f6620626f756e6473000000000000000000000000000000000000000000602082015250565b6000613f8f602b836134ea565b9150613f9a82613f33565b604082019050919050565b60006020820190508181036000830152613fbe81613f82565b9050919050565b7f4e487b7100000000000000000000000000000000000000000000000000000000600052603260045260246000fd5b7f4e487b7100000000000000000000000000000000000000000000000000000000600052601160045260246000fd5b600061402e8261359a565b91507fffffffffffffffffffffffffffffffffffffffffffffffffffffffffffffffff82141561406157614060613ff4565b5b600182019050919050565b600081905092915050565b50565b600061408760008361406c565b915061409282614077565b600082019050919050565b60006140a88261407a565b9150819050919050565b7f455243373231456e756d657261626c653a20676c6f62616c20696e646578206f60008201527f7574206f6620626f756e64730000000000000000000000000000000000000000602082015250565b600061410e602c836134ea565b9150614119826140b2565b604082019050919050565b6000602082019050818103600083015261413d81614101565b9050919050565b7f4552433732313a206f776e657220717565727920666f72206e6f6e657869737460008201527f656e7420746f6b656e0000000000000000000000000000000000000000000000602082015250565b60006141a06029836134ea565b91506141ab82614144565b604082019050919050565b600060208201905081810360008301526141cf81614193565b9050919050565b7f4552433732313a2062616c616e636520717565727920666f7220746865207a6560008201527f726f206164647265737300000000000000000000000000000000000000000000602082015250565b6000614232602a836134ea565b915061423d826141d6565b604082019050919050565b6000602082019050818103600083015261426181614225565b9050919050565b7f74686520636f6e74726163742069732070617573656400000000000000000000600082015250565b600061429e6016836134ea565b91506142a982614268565b602082019050919050565b600060208201905081810360008301526142cd81614291565b9050919050565b7f6e65656420746f206d696e74206174206c656173742031204e46540000000000600082015250565b600061430a601b836134ea565b9150614315826142d4565b602082019050919050565b60006020820190508181036000830152614339816142fd565b9050919050565b7f6d6178206d696e7420616d6f756e74207065722073657373696f6e206578636560008201527f6564656400000000000000000000000000000000000000000000000000000000602082015250565b600061439c6024836134ea565b91506143a782614340565b604082019050919050565b600060208201905081810360008301526143cb8161438f565b9050919050565b60006143dd8261359a565b91506143e88361359a565b9250827fffffffffffffffffffffffffffffffffffffffffffffffffffffffffffffffff0382111561441d5761441c613ff4565b5b828201905092915050565b7f6d6178204e4654206c696d697420657863656564656400000000000000000000600082015250565b600061445e6016836134ea565b915061446982614428565b602082019050919050565b6000602082019050818103600083015261448d81614451565b9050919050565b7f75736572206973206e6f742077686974656c6973746564000000000000000000600082015250565b60006144ca6017836134ea565b91506144d582614494565b602082019050919050565b600060208201905081810360008301526144f9816144bd565b9050919050565b7f6d6178204e465420706572206164647265737320657863656564656400000000600082015250565b6000614536601c836134ea565b915061454182614500565b602082019050919050565b6000602082019050818103600083015261456581614529565b9050919050565b60006145778261359a565b91506145828361359a565b9250817fffffffffffffffffffffffffffffffffffffffffffffffffffffffffffffffff04831182151516156145bb576145ba613ff4565b5b828202905092915050565b7f696e73756666696369656e742066756e64730000000000000000000000000000600082015250565b60006145fc6012836134ea565b9150614607826145c6565b602082019050919050565b6000602082019050818103600083015261462b816145ef565b9050919050565b600081905092915050565b6000614648826134df565b6146528185614632565b93506146628185602086016134fb565b80840191505092915050565b600061467a828561463d565b9150614686828461463d565b91508190509392505050565b7f4f776e61626c653a206e6577206f776e657220697320746865207a65726f206160008201527f6464726573730000000000000000000000000000000000000000000000000000602082015250565b60006146ee6026836134ea565b91506146f982614692565b604082019050919050565b6000602082019050818103600083015261471d816146e1565b9050919050565b7f4552433732313a206f70657261746f7220717565727920666f72206e6f6e657860008201527f697374656e7420746f6b656e0000000000000000000000000000000000000000602082015250565b6000614780602c836134ea565b915061478b82614724565b604082019050919050565b600060208201905081810360008301526147af81614773565b9050919050565b7f4552433732313a207472616e736665722066726f6d20696e636f72726563742060008201527f6f776e6572000000000000000000000000000000000000000000000000000000602082015250565b60006148126025836134ea565b915061481d826147b6565b604082019050919050565b6000602082019050818103600083015261484181614805565b9050919050565b7f4552433732313a207472616e7366657220746f20746865207a65726f2061646460008201527f7265737300000000000000000000000000000000000000000000000000000000602082015250565b60006148a46024836134ea565b91506148af82614848565b604082019050919050565b600060208201905081810360008301526148d381614897565b9050919050565b60006148e58261359a565b91506148f08361359a565b92508282101561490357614902613ff4565b5b828203905092915050565b7f4552433732313a20617070726f766520746f2063616c6c657200000000000000600082015250565b60006149446019836134ea565b915061494f8261490e565b602082019050919050565b6000602082019050818103600083015261497381614937565b9050919050565b7f4552433732313a207472616e7366657220746f206e6f6e20455243373231526560008201527f63656976657220696d706c656d656e7465720000000000000000000000000000602082015250565b60006149d66032836134ea565b91506149e18261497a565b604082019050919050565b60006020820190508181036000830152614a05816149c9565b9050919050565b7f4e487b7100000000000000000000000000000000000000000000000000000000600052601260045260246000fd5b6000614a468261359a565b9150614a518361359a565b925082614a6157614a60614a0c565b5b828204905092915050565b6000614a778261359a565b9150614a828361359a565b925082614a9257614a91614a0c565b5b828206905092915050565b600081519050919050565b600082825260208201905092915050565b6000614ac482614a9d565b614ace8185614aa8565b9350614ade8185602086016134fb565b614ae78161352e565b840191505092915050565b6000608082019050614b07600083018761362f565b614b14602083018661362f565b614b2160408301856136c5565b8181036060830152614b338184614ab9565b905095945050505050565b600081519050614b4d816133f7565b92915050565b600060208284031215614b6957614b686133c1565b5b6000614b7784828501614b3e565b91505092915050565b7f4e487b7100000000000000000000000000000000000000000000000000000000600052603160045260246000fd5b7f4552433732313a206d696e7420746f20746865207a65726f2061646472657373600082015250565b6000614be56020836134ea565b9150614bf082614baf565b602082019050919050565b60006020820190508181036000830152614c1481614bd8565b9050919050565b7f4552433732313a20746f6b656e20616c7265616479206d696e74656400000000600082015250565b6000614c51601c836134ea565b9150614c5c82614c1b565b602082019050919050565b60006020820190508181036000830152614c8081614c44565b905091905056fea26469706673582212201c5f113387ac307c46b8123ecc7e4b672b8f96ea780bd22257732fde7fc8de1164736f6c63430008090033",
  "immutableReferences": {},
  "source": "// SPDX-License-Identifier: MIT\r\npragma solidity ^0.8.0;\r\n\r\nimport \"./token/ERC721/extensions/ERC721Enumerable.sol\";\r\nimport \"./access/Ownable.sol\";\r\n\r\ncontract ChordusArena is ERC721Enumerable, Ownable{\r\n  using Strings for uint256;\r\n\r\n  string public baseURI;\r\n  string public baseExtension = \".json\";\r\n  uint256 public cost = 1 ether;\r\n  uint256 public maxSupply = 10000;\r\n  uint256 public maxMintAmount = 20;\r\n  uint256 public nftPerAddressLimit = 3;\r\n  bool public paused = false;\r\n  bool public revealed = false;\r\n  bool public onlyWhitelisted = true;\r\n  address[] public whitelistedAddresses;\r\n  mapping(address => uint256) public addressMintedBalance;\r\n\r\n  constructor(\r\n    string memory _name,\r\n    string memory _symbol,\r\n    string memory _initBaseURI\r\n  ) ERC721(_name, _symbol) {\r\n    setBaseURI(_initBaseURI);\r\n  }\r\n\r\n  function setBaseURI(string memory _newBaseURI) public onlyOwner {\r\n    baseURI = _newBaseURI;\r\n  }\r\n\r\n  // internal\r\n  function _baseURI() internal view virtual override returns (string memory) {\r\n    return baseURI;\r\n  }\r\n\r\n \tfunction tokenURI(uint256 tokenId) public view virtual override returns (string memory) {\r\n  \trequire(tokenId <= maxSupply);\r\n\t  string memory currentBaseURI = _baseURI();\r\n\t  return bytes(currentBaseURI).length > 0\t? string(abi.encodePacked(currentBaseURI, tokenId.toString())) : \"\";\r\n\t}\r\n\r\n  // public\r\n  function mint(uint256 _mintAmount) public payable {\r\n    require(!paused, \"the contract is paused\");\r\n    uint256 supply = totalSupply();\r\n    require(_mintAmount > 0, \"need to mint at least 1 NFT\");\r\n    require(_mintAmount <= maxMintAmount, \"max mint amount per session exceeded\");\r\n    require(supply + _mintAmount <= maxSupply, \"max NFT limit exceeded\");\r\n\r\n    if (msg.sender != owner()) {\r\n        if(onlyWhitelisted == true) {\r\n            require(isWhitelisted(msg.sender), \"user is not whitelisted\");\r\n            uint256 ownerMintedCount = addressMintedBalance[msg.sender];\r\n            require(ownerMintedCount + _mintAmount <= nftPerAddressLimit, \"max NFT per address exceeded\");\r\n        }\r\n        require(msg.value >= cost * _mintAmount, \"insufficient funds\");\r\n    }\r\n\r\n    for (uint256 i = 1; i <= _mintAmount; i++) {\r\n      addressMintedBalance[msg.sender]++;\r\n      _safeMint(msg.sender, supply + i);\r\n    }\r\n  }\r\n  \r\n  function isWhitelisted(address _user) public view returns (bool) {\r\n    for (uint i = 0; i < whitelistedAddresses.length; i++) {\r\n      if (whitelistedAddresses[i] == _user) {\r\n          return true;\r\n      }\r\n    }\r\n    return false;\r\n  }\r\n\r\n  function walletOfOwner(address _owner)\r\n    public\r\n    view\r\n    returns (uint256[] memory)\r\n  {\r\n    uint256 ownerTokenCount = balanceOf(_owner);\r\n    uint256[] memory tokenIds = new uint256[](ownerTokenCount);\r\n    for (uint256 i; i < ownerTokenCount; i++) {\r\n      tokenIds[i] = tokenOfOwnerByIndex(_owner, i);\r\n    }\r\n    return tokenIds;\r\n  }\r\n\r\n  //only owner\r\n  function reveal() public onlyOwner {\r\n      revealed = true;\r\n  }\r\n  \r\n  function setNftPerAddressLimit(uint256 _limit) public onlyOwner {\r\n    nftPerAddressLimit = _limit;\r\n  }\r\n  \r\n  function setCost(uint256 _newCost) public onlyOwner {\r\n    cost = _newCost;\r\n  }\r\n\r\n  function setmaxMintAmount(uint256 _newmaxMintAmount) public onlyOwner {\r\n    maxMintAmount = _newmaxMintAmount;\r\n  }\r\n\r\n  function setBaseExtension(string memory _newBaseExtension) public onlyOwner {\r\n    baseExtension = _newBaseExtension;\r\n  }\r\n\r\n  function pause(bool _state) public onlyOwner {\r\n    paused = _state;\r\n  }\r\n  \r\n  function setOnlyWhitelisted(bool _state) public onlyOwner {\r\n    onlyWhitelisted = _state;\r\n  }\r\n  \r\n  function whitelistUsers(address[] calldata _users) public onlyOwner {\r\n    delete whitelistedAddresses;\r\n    whitelistedAddresses = _users;\r\n  }\r\n \r\n  function withdraw() public payable onlyOwner {\r\n  \t(bool success, ) = payable(msg.sender).call{value: address(this).balance}(\"\");\r\n\t  require(success);\r\n  }\r\n}\r\n",
  "sourcePath": "D:\\OneDrive\\BlockChain\\workspace\\chordusarenacontract\\contracts\\ChordusArena.sol",
  "compiler": {
    "name": "solc",
    "version": "0.8.9+commit.e5eed63a.Emscripten.clang"
  },
  "schemaVersion": "3.4.3",
  "updatedAt": "2021-12-13T03:05:28.405Z",
  "networkType": "ethereum",
  "devdoc": {
    "kind": "dev",
    "methods": {
      "approve(address,uint256)": {
        "details": "See {IERC721-approve}."
      },
      "balanceOf(address)": {
        "details": "See {IERC721-balanceOf}."
      },
      "getApproved(uint256)": {
        "details": "See {IERC721-getApproved}."
      },
      "isApprovedForAll(address,address)": {
        "details": "See {IERC721-isApprovedForAll}."
      },
      "name()": {
        "details": "See {IERC721Metadata-name}."
      },
      "owner()": {
        "details": "Returns the address of the current owner."
      },
      "ownerOf(uint256)": {
        "details": "See {IERC721-ownerOf}."
      },
      "renounceOwnership()": {
        "details": "Leaves the contract without owner. It will not be possible to call `onlyOwner` functions anymore. Can only be called by the current owner. NOTE: Renouncing ownership will leave the contract without an owner, thereby removing any functionality that is only available to the owner."
      },
      "safeTransferFrom(address,address,uint256)": {
        "details": "See {IERC721-safeTransferFrom}."
      },
      "safeTransferFrom(address,address,uint256,bytes)": {
        "details": "See {IERC721-safeTransferFrom}."
      },
      "setApprovalForAll(address,bool)": {
        "details": "See {IERC721-setApprovalForAll}."
      },
      "supportsInterface(bytes4)": {
        "details": "See {IERC165-supportsInterface}."
      },
      "symbol()": {
        "details": "See {IERC721Metadata-symbol}."
      },
      "tokenByIndex(uint256)": {
        "details": "See {IERC721Enumerable-tokenByIndex}."
      },
      "tokenOfOwnerByIndex(address,uint256)": {
        "details": "See {IERC721Enumerable-tokenOfOwnerByIndex}."
      },
      "tokenURI(uint256)": {
        "details": "See {IERC721Metadata-tokenURI}."
      },
      "totalSupply()": {
        "details": "See {IERC721Enumerable-totalSupply}."
      },
      "transferFrom(address,address,uint256)": {
        "details": "See {IERC721-transferFrom}."
      },
      "transferOwnership(address)": {
        "details": "Transfers ownership of the contract to a new account (`newOwner`). Can only be called by the current owner."
      }
    },
    "version": 1
  },
  "userdoc": {
    "kind": "user",
    "methods": {},
    "version": 1
  }
}